:020000040800F2
:10000000A806002051010008ED1D0008951B0008FE
:10001000E91D000821050008BD28000800000000B7
:10002000000000000000000000000000E9220008BD
:100030007105000800000000891E00083123000837
:100040006B0100086B0100086B0100086B010008E0
:100050006B0100086B0100086B0100086B010008D0
:100060006B0100086B0100086B0100086B010008C0
:100070006B0100086B0100086B0100086B010008B0
:100080006B0100086B0100086B0100086B010008A0
:100090006B0100086B0100086B0100086B01000890
:1000A0006B0100086B0100086B0100086B01000880
:1000B0006B0100086B0100086B0100086B01000870
:1000C0006B0100086B0100086B0100086B01000860
:1000D0006B0100086B0100086B0100086B01000850
:1000E0006B0100086B0100086B0100086B01000840
:1000F0009D1B0008A11B0008B51700086B01000834
:100100006B0100086B0100086B0100086B0100081F
:100110006B0100086B0100086B0100086B0100080F
:100120006B0100086B0100086B0100086B010008FF
:100130006B0100086B0100086B010008DFF80CD0B0
:1001400000F03CF800480047CD310008A806002028
:100150000648804706480047FEE7FEE7FEE7FEE761
:10016000FEE7FEE7FEE7FEE7FEE7FEE735230008D1
:100170003D01000840EA01039B0703D009E008C9DC
:10018000121F08C0042AFAD203E011F8013B00F85C
:10019000013B521EF9D27047D2B201E000F8012BA8
:1001A000491EFBD270470022F6E710B513460A46F7
:1001B00004461946FFF7F0FF204610BD064C074DD8
:1001C00006E0E06840F0010394E807009847103427
:1001D000AC42F6D3FFF7B6FFA0360008D0360008D1
:1001E00030B58C1810F8012B12F00F0301D110F864
:1001F000013B120906D110F8012B03E010F8015B56
:1002000001F8015B5B1EF9D101E001F8013B521ED0
:10021000FBD1A142E6D3002030BD000010B588B06C
:1002200043F26040C0F6000090E80E50446901912E
:10023000018B807E02920393CDF810C0CDF814E0BC
:100240000694ADF81C108DF81E0002F065F901A8A7
:1002500001F0B2FE08B010BD7047000010B588B0C4
:1002600004464068B0F80B00B0F5124F2FD1684635
:1002700001F0B0FE61680020497B06900129CDF8AD
:100280001500CDF8110021D009BBFFF7C7FF0F20E3
:100290008DF810007F208DF8120042F20000CEF29F
:1002A00004000168090CADF81C1000686FF31F30E2
:1002B000ADF81E0004A801F071FE00F00BF801205B
:1002C000002102F07BF908B010BD00BF207008B01B
:1002D00010BD00002DE9F0439BB043F27C40C0F616
:1002E000000090E88E00D0E904650DF1200ED0E901
:1002F00006C48EE88E00CDE90C6500F12007D0E938
:100300000C65008F8ECFADF8580040F22800C2F285
:100310000300179040F2E940C0F600000DF1400ED6
:10032000189040F201508EE88E00C0F6000017A928
:10033000CDE90EC41496159502F016FE0220012197
:1003400002F03CF943F25D12C0F6000202200021E7
:10035000002402F065F908A801F012FE002818BF79
:1003600000F00AF947F28055C1F6FF75ADF8664016
:1003700002F05EFE286840F28004411CC2F20004D4
:100380000ED06968224602F80A0F000A5070080C65
:100390000B0A1071080E9170D37050710AE000BF03
:1003A000002001F027FD43F29862C0F60002002809
:1003B00018BF024600200621002502F09FFD43F2EF
:1003C0008862C0F60002182010214FF0100902F0D8
:1003D00095FD43F27862C0F600020820102108263D
:1003E00002F08CFD012018214FF0010802F05EFDA3
:1003F00002F0E2FC0DF16A001AAF009017AB012089
:1004000000210822019702F05DFABDF85C00BDF8FA
:100410006A102AA700220823009702F0EDFCBDF81D
:100420005C00BDF868100DF16607002202230097FA
:1004300002F0E2FC00200221022202F0BFFD0120B6
:1004400002F062FB4BF20720C0F20100CDE902503E
:100450000020012101220023CDE90069049502F06A
:10046000C7FA01F08BFE4FF6FF7040F2C942A08040
:10047000C0F6000201200021257002F0D1F806200C
:1004800002F0EEFC00F050F800208021A0220023B2
:1004900084F80080CDE90055CDE90255CDE9045539
:1004A000069502F0E1FA40F22001C2F200010A20B2
:1004B00002F070FB1BB0BDE8F08300BF54454D5007
:1004C0004C4154450000000010B540F28004C2F2D7
:1004D00000042078052808BF10BD02F03BFB002077
:1004E000207010BD70470000012805D0002818BFFB
:1004F0007047032002F080B8032002F0BDB800006E
:1005000010B504464068083001F0C2FE002818BF4C
:100510000120207010BD00007047000070470000EF
:10052000FEE70000704700007047000070470000C1
:100530007047000080B586B04178FF2902D00020C6
:1005400006B080BDB0F8031040F61B429142F6D1D0
:10055000B0F805000021ADF8140001A88DF80410D2
:10056000FFF7E6FF002006B080BD000070470000E6
:100570007047000070470000EFF3108072B600BFB4
:10058000FEE7000040F2A420C2F2000000687047BD
:1005900040F20800C2F20000406870477047000057
:1005A00041F20051C5F60001C8680A6882430A603A
:1005B0004860FFF7F3BF0000002804BF0120704728
:1005C00010B5044690F8380010B9204600F028F81D
:1005D00040F60041C5F6000100204FF03F120860D0
:1005E0004A603F228A600A6842F001120A6040F2C3
:1005F0007161C0F6000140F27562C0F60002C4E904
:100600000111C4E90311C4E905110121C4E907225C
:10061000C4E90922C4E90B22606384F8381010BDD4
:1006200080B582B05021C5F60001006801F53B623B
:1006300090421CBF02B080BD0868002240F48010C8
:1006400008600868002100F48010019001982C20B7
:1006500000F0A6F82C2000F083F82D2000210022C5
:1006600000F09EF82D2002B0BDE8804000F078B880
:10067000704700007047000040F2080040F2A421DB
:10068000C2F20000C2F2000100780A68104408605B
:100690007047000080B544F20000C5F60000016814
:1006A00041F480710160032000F0A6F80F2000F0F3
:1006B00009F800281CBF012080BD00F027F80020A9
:1006C00080BD000070B540F20806C2F20006317825
:1006D000D1B1044600F0BCFB31784FF47A72B2FB22
:1006E000F1F1B0FBF1F001F04BF80F2C4FF00105E8
:1006F00008D838B94FF0FF3021460022002500F01D
:100700004FF87460284670BD012070BD80B582B07E
:100710005020C5F600000168002241F4002101606C
:100720000068002100F40020019001982E2000F0C4
:1007300037F82E2002B0BDE8804000F011B800006C
:10074000002848BF704700F01F01012202FA01F1A2
:100750004EF280224009CEF2000242F8201070478B
:10076000002848BF704700F01F01012202FA01F182
:100770004EF200124009CEF2000242F820107047FB
:10078000002848BF704700F01F01012202FA01F162
:100790004EF200224009CEF2000242F820107047CB
:1007A00010B54EF60C5CCEF2000CDCF80030C3F352
:1007B000022E8EF00704042C28BF0424BEF103038C
:1007C0004FF0FF3E0EFA04F438BF0023A1439940D6
:1007D0000EFA03F39A43114300F00F02043A624405
:1007E00009010C3200F16043B0F1FF3FC8BF03F5CF
:1007F0006442117010BD00004EF60C51CEF20001A3
:100800000A684FF6FF031A4060F30A2242F0806044
:1008100040F0FD700860704740F20040C5F60000EF
:10082000006800F4C060704740F20040C5F6000068
:10083000016841F480710160704700002DE9F043C8
:1008400081B00446007888274006C5F6000717D512
:10085000206B6FF0010101EBB05102290BD34FEA7D
:10086000B05100294CD0012960D157F87C1C41F4CB
:10087000803147F87C1C396821F440010843386016
:100880004FF00009607800072AD5B868216C00F4A1
:1008900040758D4224D0FFF7C7FF002D4AD0B868BD
:1008A000B96820F4407041F48031B960B96821F42E
:1008B0008031B960216C0843B860B868C0070FD0B8
:1008C000FFF760FE064641F2893500BFB868800731
:1008D00006D4FFF757FE801BA842F7D34FF0030959
:1008E0002068C1072FD1810735D4C1063BD48106CA
:1008F00045D441074FD401075BD4C00567D4B6E0A7
:100900004FF0B046306820F080603060FFF73AFE6C
:10091000054600BF3068000140F12C81FFF732FE30
:10092000401B0228F6D94FF00309ABE74FF001094D
:10093000A8E700BF206CB96821F440710843B86093
:100940002068C107CFD0A1693A6822F003021143A1
:1009500039608107C9D5E1693A6822F440621143E0
:100960003960C106C3D5A16A3A684FF6FF7363EADE
:1009700001031A4042EA014139608106B9D5E16AB2
:100980003A684FF6FF7363EA01031A4042EA0141F5
:1009900039604107AFD5216A3A686FF47F2363EA73
:1009A00011131A4001F47F4142EA01113960010735
:1009B000A3D5616A3A686FF47F2363EA11131A4082
:1009C00001F47F4142EA01113960C0054FD5606BE7
:1009D0003968B0F1806F21F0406141EA000139606F
:1009E0000CD0B0F1006F42D157F87C0C40F0807011
:1009F00047F87C0C2068810560D53BE04FF0B0459E
:100A0000286820F080602860FFF7BCFD064600BF24
:100A10002868000106D5FFF7B5FD801B0228F7D92D
:100A200023E000BF57F8780C616820F4FE4040EAEC
:100A30000120E26847F8780C57F8780C4FF0B04581
:100A400020F06060104347F8780C286840F0806020
:100A50002860FFF797FD06462868000100F1B28084
:100A6000FFF790FD801B0228F6D94FF0030920689C
:100A7000810523D5A16B6FF04042B1F1004F0DD03D
:100A800061B1B1F1804F0B4609D03A6821F0805333
:100A900022F040423A606FF0406200E00B463E6850
:100AA000B1F1C05F02EA060242EA03023A6005D1F0
:100AB00057F87C1C41F0807147F87C1C40054FD5ED
:100AC000E06B3968B0F1805F21F0405141EA0001EC
:100AD00039600DD0B0F1005F42D157F87C0C40F482
:100AE000803047F87C0C2068C10400F180803AE037
:100AF0004FF0B045286820F080602860FFF742FD85
:100B0000064600BF2868000106D5FFF73BFD801BA5
:100B10000228F7D922E000BF57F8780C616820F46A
:100B2000FE4040EA0120226947F8780C57F8780C1B
:100B30004FF0B04520F06040104347F8780C28682B
:100B400040F080602860FFF71DFD06462868000120
:100B500044D4FFF717FD801B0228F7D94FF0030993
:100B60002068C10443D4800449D4484601B0BDE89C
:100B7000F08300BF57F8780CD4E9011220F4FE404E
:100B800040EA012047F8780C57F8780C4FF0B0484D
:100B900020F47810104347F8780CD8F8000040F0A3
:100BA0008060C8F80000FFF7EDFC06464FF003092F
:100BB000D8F80000000137D4FFF7E4FC801B0228BE
:100BC000F6D95FE6606957F8781C084347F8780C57
:100BD000206881057FF572AF4CE700BF606957F868
:100BE000781C084347F8780C2068C104BBD5616CB9
:100BF000FA6822F440421143F9608004B5D5D4E983
:100C0000120157F8642C22F03002114347F8641C9B
:100C100057F8641C21F00301084347F8640C484668
:100C200001B0BDE8F08300BF57F8781C6269206B03
:100C3000114347F8781C1EE62DE9F04381B00028E7
:100C400000F0CB8044F20008C5F600080546D8F84D
:100C500000000C4600F00700884215D2D8F80000CA
:100C600020F007002043C8F80000FFF78BFC064681
:100C7000D8F8000000F00700A04205D0FFF782FC82
:100C8000801B0228F4D977E0286808278107C5F679
:100C9000000714D5A868396821F0F00108433860CE
:100CA000FFF770FC064600BF3868C00306D4FFF7A4
:100CB00069FC801B0228F7D95EE000BF2868810626
:100CC00015D56869D7F8001121F0F0010843C7F87D
:100CD0000001FFF757FC0646D7F80001800305D452
:100CE000FFF750FC801B0228F6D945E02868410632
:100CF00017D5A869D7F8001121F00F0141EA1010AB
:100D0000C7F80001FFF73EFC064600BFD7F8000118
:100D1000C00305D4FFF736FC801B0228F6D92BE070
:100D20002868410713D5E868396821F4E061084371
:100D30003860FFF727FC06463868800306D4FFF7C3
:100D400021FC801B0228F7D916E000BF28680107A4
:100D500017D52869396821F4605141EAC00038602C
:100D6000FFF710FC064600BF3868400308D4FFF7C1
:100D700009FC801B0228F7D9032001B0BDE8F083ED
:100D80002868C0071ED1D8F8000000F00700A04274
:100D900028D9D8F8000020F007002043C8F8000048
:100DA000FFF7F0FB054600BFD8F8000000F0070091
:100DB000A04217D0FFF7E6FB401B02284FF00300CC
:100DC000F2D939E068684FF0B041C8B1032837D094
:100DD000022839D10968890315D4012001B0BDE882
:100DE000F08300BF00F034F840F21C01C2F20001B1
:100DF0000860FFF7CDFB01B0BDE8F043FFF762BC30
:100E000009688907E9D5396821F00301084338608A
:100E1000FFF7B8FB064641F2883900BF38686968B9
:100E200000F00C00B0EB810FADD0FFF7ABFB801BE7
:100E300048454FF00300F1D901B0BDE8F08300BF91
:100E400009688901C9D5DEE709684905C5D5DAE72A
:100E50000C20C5F6000050F8041C01F00C0242F210
:100E60000041082AC0F2F40112D0042A4AD0CAB9BB
:100E70004FF0B041096843F2F84201F0F001B029A7
:100E800028BFB0218908C0F6000251583AE000BFDF
:100E90004FF0B0421268D2025CBF44F60001C0F2CB
:100EA000E8112FE0026802F00302022A1AD0032A96
:100EB0000AD14FF0B0421268D2025CBF44F6000182
:100EC000C0F2E8110EE000BF4FF0B041096843F2F4
:100ED000F84201F0F001B02928BFB0218908C0F61E
:100EE0000002515802680368C2F306225143C3F35B
:100EF00002120132B1FBF2F10268012303EB5272DC
:100F0000B1FBF2F150F8040C3C2202EA900043F2EB
:100F1000B842C0F600021058B1FBF0F07047000074
:100F2000F0B581B0002800F0758204460078942660
:100F30008006C5F6000659D42078C00713D056F8AD
:100F40008C0C00F00C0156F8880C082907D00C29ED
:100F500040F0D28000F00300032840F0CD806068AC
:100F6000002800F05782207880071CD556F88C0C9A
:100F700000F00C0156F8880C042907D00C2940F029
:100F8000DD8000F00300022840F0D880E0680028EF
:100F900000F04082206956F8901C21F0FE4141EAA1
:100FA000006046F8900C216811F0180F00F06E8177
:100FB00062693068002A00F08D8011F0100140F065
:100FC000A78040F001003060FFF7DCFA054600BF63
:100FD0003068800700F11881FFF7D4FA401B02281F
:100FE0004FF00300F4D901B0F0BD00BF56F88C0CEF
:100FF00010F00C0156F8880C05D00C292AD100F00D
:101000000300012826D1E069002800F003824FF098
:10101000B041606A0A6802F0F002B02A28BFB0222C
:10102000904231D900F032FF002840F0F3814FF0B8
:10103000B042D4E90801136823F0F00319431160AA
:1010400056F8901C21F47F4141EA002046F8900CAC
:101050002DE000BFE1694FF0B0473868002900F08B
:10106000878040F001003860FFF78CFA054600BF2A
:101070003868800700F1A280FFF784FA401B02283D
:101080004FF00300F4D9AEE70A6822F0F002024301
:101090000A60216A56F8902C22F47F4242EA01212C
:1010A00046F8901C00F0F2FE002840F0B381FFF7F4
:1010B000CFFE40F20C01C2F2000140F21C020968AE
:1010C000C2F2000210600846FFF7FCFA002840F068
:1010D000A18131E720F004003060FFF753FA0546A4
:1010E0003068000740F17C80FFF74CFA401B032872
:1010F0004FF00300F4D976E761684FF0B040026822
:10110000B1F5803F40F0908042F48031016091E081
:1011100080073FD4306840F001003060FFF732FABA
:10112000054600BF3068800734D4FFF72BFA401B18
:1011300002284FF00300F5D955E700BFE1684FF0F2
:10114000B0473868002900F09B8140F48070386017
:10115000FFF718FA054600BF386840053FF51AAF9B
:10116000FFF710FA401B02284FF00300F4D93AE7CA
:1011700020F001003860FFF705FA0546386880075F
:101180007FF5DAAEFFF7FEF9401B02284FF00300AF
:10119000F4D928E7306840F004003060FFF7F2F936
:1011A000054600BF3068000756D4FFF7EBF9401B37
:1011B00003284FF00300F5D915E700BF4FF0B04208
:1011C000D4E90801136823F0F0031943116056F8BD
:1011D000901C21F47F4141EA002046F8900CABE6D8
:1011E000306820F001003060FFF7CCF9054600BF01
:1011F000306880074AD5FFF7C5F9401B02284FF039
:101200000300F5D9EFE600BF306820F0040030603D
:10121000306800073AD5FFF7B5F9401B03284FF0B7
:101220000300F5D9DFE600BF22F480320029026016
:1012300000F03881FFF7A6F905464FF0B04700BF30
:10124000386880033FF58FAEFFF79CF9401B642898
:101250004FF00300F4D9C6E6A069316821F470614B
:1012600041EA00203060306820F001003060FFF774
:1012700089F905463068800708D5FFF783F9401BD8
:1012800002284FF00300F5D9ADE600BF20784007F3
:1012900050D42078400675D4E06A002800F06281BE
:1012A00056F88C2C56F8881C022802F00C0040F0EE
:1012B0007F80226B01F00303934240F09180626BC8
:1012C00001F07003934240F08B80A26BC1F30623C0
:1012D000934240F08580E26B01F47813934240F032
:1012E0007F80226C01F06063934279D1626C01F0DF
:1012F0006041914274D14FF0B0452868800100F1FF
:101300003181286840F08070286056F8880C40F0E1
:10131000805046F8880CFFF735F9044628688001AC
:1013200000F12081FFF72EF9001B02284FF0030087
:10133000F4D958E6D6F86C03C00511D4FFF774FA57
:10134000FFF720F9054600BFD6F86C03C00507D4A7
:10135000FFF718F9401B02284FF00300F4D942E6CA
:10136000A068012807D005286AD156F8040C40F07F
:10137000040046F8040C56F8040C40F0010046F84E
:10138000040C6AE0A16A7068002947D040F00100AF
:101390007060FFF7F7F80546706880073FF57CAF8F
:1013A000FFF7F0F8401B02284FF00300F4D91AE6CB
:1013B0000C282FD04FF0B045286820F080702860AE
:1013C000FFF7E0F804462868800140F18F80FFF7BE
:1013D000D9F8001B02284FF00300F4D903E600BF40
:1013E0000C2817D04FF0B0473868400112D4386845
:1013F00020F080703860FFF7C5F805463868800136
:1014000040F18080FFF7BEF8401B02284FF0030038
:10141000F4D9E8E5012001B0F0BD00BF20F00100E3
:101420007060FFF7AFF80546706880077FF534AF4E
:10143000FFF7A8F8401B02284FF00300F4D9D2E5CB
:1014400056F8041C21F0010146F8041C56F8041C4F
:1014500021F0040146F8041CB0B3FFF793F80546E9
:1014600041F2883756F8040C80073FF512AFFFF7BA
:1014700089F8401BB8424FF00300F3D9B3E500BF31
:1014800020F480703860FFF77DF805463868400525
:101490007FF589ADFFF776F8401B02284FF0030077
:1014A000F4D9A0E5FFF76EF805464FF0B04738686D
:1014B00080037FF558ADFFF765F8401B64284FF0B7
:1014C0000300F4D98FE500BFFFF75CF8054641F251
:1014D000883756F8040C80077FF5DBAEFFF752F82B
:1014E000401BB8424FF00300F3D97CE556F8880C56
:1014F0004FF6FC71CEF6FE61084046F8880C0020DD
:1015000001B0F0BD56F8880C48F28C01C1F2C1114F
:1015100004F1300708408ECFD4E91054084310433B
:1015200040EA032038432843204346F8880C4FF014
:10153000B045286840F08070286056F8880C40F06C
:10154000805046F8880CFFF71DF804462868800193
:1015500008D4FFF717F8001B02284FF00300F5D955
:1015600041E500BF002001B0F0BD0000F0B581B042
:10157000044690F8200001284FF0020049D00E46A2
:10158000012184F8201084F821002068CA214162DA
:101590005321416281681546490513D4816821F4BD
:1015A00080618160FEF7EEFF074600BF2168C868D2
:1015B000400719D4FEF7E6FFC01BB0F57A7FF5D9D6
:1015C0000EE000BFFEF7DEFF074600BF2068C168DF
:1015D0004907E3D5FEF7D6FFC01BB0F57A7FF5D9F2
:1015E0002168032203200DE08868012220F0070013
:1015F00088608868284388604E61886840F480600D
:1016000088600020FF234B62002184F8212084F8A9
:10161000201001B0F0BD0000B0B588B3044690F8CA
:10162000210028B9002084F82000204600F076F838
:10163000022084F8210042F60C00C4F20000006889
:10164000C00665D42068CA21416253214162C16845
:10165000490617D44FF0FF31C160FEF793FF0546EE
:101660002068C16849060DD4FEF78CFF401BB0F519
:101670007A7FF5D92068FF214162042084F8210097
:101680000120B0BD81684FF6BF72CFF68F72114056
:101690008160D4E9011CD4E903531943A36982682A
:1016A0001943114381600561016941EA0C410161FF
:1016B000C16821F08001C160C16C21F00301C164E7
:1016C000E1696269C36C11431943C1648168890689
:1016D0001CD4C16821F0A001C160FEF753FF05468C
:1016E0002068C168890611D4FEF74CFF401BB0F595
:1016F0007A7FF5D92068FF214162042084F8210017
:10170000002084F820000120B0BD00BFFF2141620D
:10171000012084F821000020B0BD000010B596B073
:10172000044601A804304C21FEF73DFD206842F636
:101730000001C4F20001884202D016B010BD00BF03
:101740004FF4006001904FF48070119001A8FFF7F2
:1017500075F8002818BFFEF70FFF5820C5F60000E7
:10176000816B41F400418163016841F48061016053
:10177000006800F480601590159816B010BD000048
:10178000411E0020B0EB116F1CBF012070474EF2CC
:101790001002CEF2000251604EF62351CEF200014B
:1017A000F0230B70072190601160704770470000B4
:1017B00070470000FEF7F4BE7047000040F21010C2
:1017C000C2F200004068004740F60440C5F6000041
:1017D000016821F0010101607047000070B582B01E
:1017E00040F25410C2F2030000F0FEF9A0B940F23A
:1017F000541440F21016C2F2030401ADC2F2000606
:101800002046294600F0FEF90198316888472046B5
:1018100000F0EAF90028F3D002B070BD40F60840AD
:10182000C5F600004FF480310160704781B040F28E
:101830005010C5F60000016841F480110160016894
:1018400001F4801100910099D0F8D01641F4007194
:10185000C0F8D01640F6D401C5F600010A6842F47B
:1018600000720A6040BF20BFD0F8BC1241F40041B2
:10187000C0F8BC1201B0704780B582B04FF2504042
:1018800040F60041CFF6FF70C5F600010A5842F459
:1018900080120A50085800F48010019001980868DE
:1018A00040F001000860086840F4803008602C2097
:1018B000FEF756FF2D2002B0BDE88040FEF750BF76
:1018C00010B540F60444C5F60004A168090705D424
:1018D00080474FF40020606010BD00BF40F230111F
:1018E000C2F200010860206820F40020206010BDD2
:1018F00010B540F60444C5F60004A069800707D57A
:101900002068800704D400F027F8022014E000BF0C
:10191000A069C00706D02068C00703D1FFF75EFFAB
:10192000012009E0A069000707D52068000748BF2B
:1019300010BD00F047F80820606010BD40F20000C4
:10194000C2F20300C16840F21011C2F200018968BE
:10195000C06800680847000070B582B040F25C10B3
:10196000C2F2030000F040F9A0B940F25C1440F26A
:101970001016C2F2030401ADC2F200062046294649
:1019800000F040F9F16801988847204600F02CF9F2
:101990000028F3D002B070BD40F60440C5F6000048
:1019A000016821F0020101607047000040F6044028
:1019B000C5F600004FF400314160016821F40031A8
:1019C00001607047B0B582B040F26C10C2F2030003
:1019D00000F00AF980B940F26C14C2F2030401ADC0
:1019E0002046294600F00EF9019800F093FD2046AC
:1019F00000F0FAF80028F3D002B0B0BD40F6044081
:101A0000C5F60000016821F0080101607047000080
:101A100010B540F60444C5F60004A06880075CBF1A
:101A200020685FEA803015D5A06800075CBF206899
:101A30005FEA003016D5A06880065ABF20685FEACA
:101A4000802010BD206840F400102060BDE81040E8
:101A5000FFF7B4BE206840F400302060BDE81040BD
:101A6000FFF76CBF206840F40020206040F2301087
:101A7000C2F20000006880474FF40020606010BD93
:101A80002DE9F04140F28028C2F20008D8F8001099
:101A9000CA224A6253224A6242F60802C4F2000293
:101AA000136843F020031360136803F00703C3F1C6
:101AB000040440F27003C2F200039C709568C5F301
:101AC00006450135DD70966840F600026FF3DF369B
:101AD000771CDF804FF6C067CFF6FF7716FB0577E0
:101AE000E6B2F7404FF6FE76C5F60002B74288BF71
:101AF0004FF0FF371F81176847F400271760D2F8AF
:101B0000807047F40027C2F8807048B1C86840056B
:101B100033D50320FEF734FED8F800102DE000BFC7
:101B2000012058704FF0FF30D86040F2B410C2F27C
:101B300000000027077380F8247080F83C7080F85C
:101B4000547080F86C7080F8847006201870886873
:101B500020F480608860C86860F4906020F4806041
:101B6000C8604FF40020D0600320FEF7E9FDD8F8EC
:101B70000010886840F480408860FF20486203209D
:101B800003210022FEF70CFE0320BDE8F041FEF722
:101B9000E7BD0000FEE7000070470000FFF7A8BEA9
:101BA000FFF736BF704700000060406070470000DC
:101BB000EFF31082EFF3108372B6036848600B6096
:101BC00001600B68596082F310887047EFF3108250
:101BD000EFF3108372B6436808604B6041604B6856
:101BE000196082F310887047EFF31081EFF31082D1
:101BF00072B6026881F31088101AB0FA80F04009BA
:101C000070470000EFF3108CEFF3108372B6036897
:101C10000B600068EFF31081EFF3108372B6036876
:101C2000426813600068426081F310888CF310886A
:101C300070470000704700007047000080B544F214
:101C40001000C5F600004FF400410160002000F0D4
:101C5000D1F8002808BF80BD9C214CF6FE22C5F6B5
:101C60000001CCF6FE2280790A600A6822F47C52D8
:101C700042EA0020086080BD10B588B040F69000B0
:101C8000C5F600000168082441F05001016042F6E9
:101C90002400C4F20000CA2101605321016050F801
:101CA0001C1CC5F6000421F0070140F81C1CFF2194
:101CB0000160206840F40040206000F077FCD4F818
:101CC0007804042161F3020040F28021C4F8780412
:101CD000C2F200010020FFF7D3FE00F093FB43F2B5
:101CE000D132C0F600020420002100F099FC40F23D
:101CF000E410C2F20300009040F25920C0F6000048
:101D0000019040F25D20C0F60000694601F0E0FA63
:101D100040F2F020C2F20300029040F2FC30C2F226
:101D20000300039040F20850C2F20300049040F216
:101D30003C50059002A800F09DFB00F061FB08B04C
:101D400010BD00004FF0FF3000F0A6BC81B04C2069
:101D5000C5F60000016841F004010160006800F070
:101D600004000090009801B07047000080B540F278
:101D7000442040F60041C2F20000C5F600010160B7
:101D8000FEF71AFC002808BF80BDBDE88040FEF7C2
:101D9000F3BB00007047000080B540F2802042F69F
:101DA0000001C2F20000C4F2000100220F2347F636
:101DB000FF7C80E80E10C0E90422C0E90622FFF78C
:101DC0002BFC002818BFFEF7D7FB40F28020C2F2A0
:101DD000000000210022FFF7C9FB002808BF80BDDA
:101DE000BDE88040FEF7C8BBFEE70000FEE700004C
:101DF0007047000047F2000CC1F6FF7C01460CF56D
:101E00007E7000BFC2798A421AD010F8012C8A4233
:101E10001CD010F8092C8A421ED010F8113C5A1A16
:101E200018BF01228B42A0F1200303D0183860456F
:101E30001846E7D103F10800002A18BF00207047B8
:101E40000022002A18BF0020704700BF0838002277
:101E5000002A18BF0020704710380022002A18BF3F
:101E60000020704710B50446FEF784F9204610BDE7
:101E700010B51346CAB219460446FEF78DF920463E
:101E800010BD0000704700007047000070B53C2195
:101E900043F2F84201EA9001C0F600021144B02872
:101EA00088BF02F12C01086840F20811C5F6000154
:101EB000096843F2B84201F00F01C0F6000252F87F
:101EC0002110B0FBF1F4FEF7A7FCB0F5007F19D1AB
:101ED0004EF6C020C0F22110844227D349F2403090
:101EE000C0F23420844223D343F6C030C0F24730DE
:101EF00084421FD34DF23F20C0F2DF30844213D81A
:101F0000032018E04CF6BF70C0F26A0084420DD97D
:101F100045F64050C0F2C600844209D346F23F6005
:101F2000C0F20310844205D9002507E0002002E03A
:101F3000012000E002200EA151F8205044F20006DA
:101F4000C5F60006306820F0070028433060FEF731
:101F500019FB0446306800F00700A84206D0FEF7DF
:101F600011FB001B0328F5D3032070BD002070BDBA
:101F7000000000000100000002000000030000005B
:101F800080B584B000F10C026B464FF666402E21FE
:101F900001F0DEF99DF80E0004B080BD80B584B07C
:101FA00002466B464FF67540102101F0D1F99DF8BD
:101FB0000E0004B080BD000080B584B000F10C02BA
:101FC0006B464FF668400F2101F0C2F99DF80E00F4
:101FD00004B080BD70B544F23C01C5F6000109684B
:101FE0000022C2F2030261F38F02136845F2B96165
:101FF000D3F800C0CAF646118C4501460AD103F158
:10200000140C03F1180E03F11C0003F10C02103341
:1020100009E000BF136803F1100C03F1140E03F183
:1020200018001A1D08330668DCF80000DEF80040CE
:10203000050E0D70050C4D70050A8D70C5B200F0CF
:102040000F000871200E12684871200C8871200A58
:10205000C871100E1B688872100CC872100A0873C1
:10206000180E4873180C2D0988730020CD700C725F
:102070004E72CB7370BD000070B588B04178FF29F7
:1020800030D03E294AD0052928D140F28004C2F23E
:1020900000048088A1880126884204BF0020A08017
:1020A000002500208021A02200232670CDE90055C4
:1020B000CDE90255CDE90455069500F0D5FC40F276
:1020C0002001C2F200010A2000F064FD04F8066F4E
:1020D00034F8020C60802046FEF728FA012008B090
:1020E00070BD00BFB0F8030040F60E4188422FD00B
:1020F00040F20941884235D040F202418842EDD198
:1021000040F28000C2F2000080884BF20721C0F24A
:10211000010100F045FC012008B070BDC178012923
:10212000DCD140F28001C2F200010A780523042AC2
:1021300008BF0623B0F80500002288800881084601
:1021400000F8062F0B70FEF7F1F9012008B070BD02
:1021500040F28000C2F20000808800F007FE0120FB
:1021600008B070BD40F28000C2F2000080880121FA
:1021700000F0EEFB012008B070BD000040F23C0012
:10218000C2F20000002180F82010017000F058B861
:1021900070B58AB040F23550C0F6000000F042F849
:1021A0004EF28F50CDF2B350069047F62E70C9F61E
:1021B0004A00079044F62A00CCF67A4040F22C15EB
:1021C00006AC08900026C2F200050220214601223A
:1021D00003230996009500F071FD4EF61950CAF6DA
:1021E0008260069042F2ED10C9F64C50079044F21E
:1021F000415040F21801C8F62260C2F20001089076
:1022000035F8020B0B8810210722CDE902210221AB
:1022100022460996CDE900660496059500F0E6FC95
:102220000AB070BD40F23C01C2F2000191F82020DA
:1022300001EB82035860501C81F8200070470000B9
:1022400080B5FEF74FF9FEF767F9FEF76BF9FEF779
:102250008DF9FEF78FF9FFF7A9FAFFF7A9FAFFF753
:10226000ABFAFFF799FCFFF79DFC00F067F9FFF769
:10227000E3FCFFF707FE00F023FBFFF7B9FDFEF7D5
:102280004DF9FFF7D7FCBDE88040FFF781BF0000A4
:1022900070B504464078FF2804D02046BDE8704061
:1022A000FFF7EABE20794FF44061B1EB002FF4D183
:1022B00040F23C05C2F2000595F820000028ECD061
:1022C000002600BF05EB860041682046884728B9F4
:1022D00095F8200001368642F4D3DEE702280CBFD1
:1022E0000020012070BD00007047000070B582B072
:1022F00040F21010C2F2000000F114042046FFF773
:1023000073FC98B940F2000601ADC2F2030600BFAB
:1023100020462946FFF776FC306901990069FFF7EE
:1023200055FC2046FFF760FC0028F1D002B070BDDC
:10233000FEF7A2B94EF68850CEF2000001684FF4C5
:10234000E02241F4700101604FF0B04001684FF6A7
:10235000FB6341F0010101609421C5F6000141F8E1
:102360008C2C0268CFF6F6231A4002600A6822F02D
:1023700005020A604A6822F001024A6041F2000246
:10238000C2F2042241F8882C41F8842C026822F41D
:1023900080220260002041F87C0C7047B0B540F20A
:1023A0005415C2F2030504462846FFF7FDFB40F230
:1023B0000000C2F203004068D4E9021240F658233C
:1023C000C2F2030380E82A00C260FFF7FDF940F281
:1023D0001011D4E90002C2F20001086000204A6036
:1023E000B0BD000080B540F20000C2F203004168B9
:1023F000012209680A724068FFF710FA002080BDC8
:10240000FFF714BA40F2000040F23411C2F20300A8
:10241000C2F20301016040F27411C2F2030101F142
:102420003402426001F1440282600A1D026201F13D
:102430000C02426201F11402C26001F15402026115
:10244000416101F11C0228318261C161FFF714BAB8
:1024500080B5014640F21010C2F200001430FFF7C0
:10246000B5FB42F2ED20C0F60000BDE88040FFF76A
:1024700027BA000070B540F26415C2F203050446A5
:102480002846FFF791FB40F21016C2F2000606F153
:102490001400FFF789FB40F20000C2F2030000695C
:1024A000306194E80E0026698360E3686469C0E9DE
:1024B000001200F10C0168C1846170BDB0B540F23A
:1024C0005C15C2F2030504462846FFF76DFB40F297
:1024D0000000C2F20300C068A168C0E90015FFF760
:1024E0005BFA206840F21011C2F200018860626855
:1024F0000020CA60B0BD000080B540F20000C2F20A
:102500000300C168102209680A72C068FFF74EFA1A
:10251000002080BD7047000010B540F26C14C2F27C
:1025200003042046FFF740FB40F20000C2F2030024
:1025300040690460BDE81040FFF760BA70470000D2
:10254000002000F0BDBE000010B50146407A00F04A
:10255000FE000E280CD140F29800C2F200000830B4
:10256000FFF734FB0020BDE8104000F0F5BC00BFD1
:1025700040F22C00C2F2000000F108042046FFF7F0
:1025800025FB2046BDE8104000F042BD10B50146D5
:1025900040F26000C2F2000000F108042046FFF79C
:1025A00015FB2046BDE8104000F0C2BE40F290008E
:1025B000C2F200000021C0E900117047EFF3108261
:1025C000EFF3108372B640F29003C2F2000329B118
:1025D000012907D15968084303E000BF596821EA7F
:1025E0000000586082F31088704700004FF0FF3001
:1025F00000F052B870470000EFF31081EFF3108243
:1026000072B640F21002C2F20002136823EA000020
:10261000106081F310887047704700007047000019
:10262000EFF3108CEFF3108372B60023B0F5803F08
:1026300038BF01234FEA031338BF0004B0F1807F95
:102640003CBF08330002B0F1805F3CBF043300019F
:1026500043F23851000FC0F60001085C83F01F01FF
:10266000081A40F23411C0B2C2F2000141F8202031
:102670008CF3108870470000EFF31081EFF31082A5
:1026800072B640F21002C2F20002136818431060E2
:1026900081F31088704700002DE9F04F81B040F2BF
:1026A0001008C2F20008D8F8041040F2F006084002
:1026B0000091C8F80400C2F2000637687268D8F8C2
:1026C0000010B36800EA01053D4200F084801A4022
:1026D00040F0818043F2385A40F2341B06F118076B
:1026E000C0F6000A4FF00109C2F2000B08400022B8
:1026F0000223394651F8084C2042144610D10A688A
:1027000010420FD18A68104210D10D69221D20316C
:10271000284203F10403EDD044F00304103907E02C
:10272000083905E044F0010402E000BF08311C460E
:102730000A6806EBC40151F8143F1040184204BF68
:102740004FF0FF320A600A6810400022B0F5803F67
:1027500038BF01224FEA021238BF0004B0F1807F77
:102760003CBF08320002B0F1805F3CBF0432000180
:10277000000F1AF8000082F01F02101AC0B2F060B9
:102780000A6809FA00F022EA00000860EFF31080FE
:10279000EFF3108172B63168F26809FA02F29143E0
:1027A0003160B1699143B16131699143316180F325
:1027B0001088F0685BF82000804735687268D8F8A8
:1027C0000010B368D8F8040000EA01042C4202D0DB
:1027D0001A403FF48BAF4FF0FF30F060FFF71EFF61
:1027E000EFF31084EFF3108072B631687068D8F898
:1027F0000020D8F804301140194204D1B1680142D8
:1028000008BFFFF7F7FE84F31088FFF705FF009875
:10281000C8F8040001B0BDE8F08F0000EFF31081AC
:10282000EFF3108272B640F2F002C2F20002536877
:102830001843506081F3108870470000EFF3108C4C
:10284000EFF3108372B640F2F003C2F200031A688D
:1028500003EBC10102431A600A69104308618CF35B
:10286000108870472DE9F04140F2F0060446C2F2AC
:102870000006D6F80880F768B4607168B7F1FF35D4
:102880004FF0010018BF00FA07F5214207D100BF41
:1028900028462146FFF7AAFE70682042F8D0F7606C
:1028A000EFF31080EFF3108172B67168A14371608D
:1028B00080F31088C6F80880BDE8F081FEE70000CC
:1028C000704700002DE9F043C9B001AC15460E4633
:1028D000074620460021072298464FF00709FFF7D8
:1028E000C7FA8DF80F5043AD2846002118228DF805
:1028F0000D708DF80E60FFF7BBFA3F20C0F28A0022
:1029000043900DF10D004590032046A981E8110286
:102910002846002100F0ACFB002805D49DF80400F7
:1029200030B149B0BDE8F083FF2049B0BDE8F08385
:10293000BDF805105198509AA8F80010BDF807107E
:10294000BDF8093011800380002049B0BDE8F08354
:1029500010B5C8B0002242AC8DF80720ADF80800D1
:102960008DF80A10204600211822FFF781FA3F2037
:10297000C0F2A500429002A84490032045900DF1BA
:1029800007004690012047902046002100F070FB90
:102990009DF80710002848BFFF21084648B010BD29
:1029A00010B5C8B0002242AC8DF80720ADF8080081
:1029B000CDF80A10204600211822FFF759FA3F20CF
:1029C000C0F28800429002A84490062045900DF184
:1029D00007004690012047902046002100F048FB68
:1029E0009DF80710002848BFFF21084648B010BDD9
:1029F000F0B5C7B0DDE94E4EDDF840C1DDE94C650C
:102A00008DF80B4041AC00278DF805008DF80610BD
:102A10008DF807202046002118228DF804708DF8CB
:102A200008308DF809608DF80A50CDF80CE08DF86B
:102A300010C0FFF71DFA3F20C0F2860041900DF153
:102A4000050043900C20449001A845900120469039
:102A50002046002100F00CFB9DF80410002848BF20
:102A6000FF21084647B0F0BD2DE9F04FC7B0DDE9C2
:102A700052C4DDE950E50DF1050909F10807DDE96A
:102A8000548B4FF0000A8DF80500ADF80610ADF834
:102A90000820384661462A467E198DF804A08DF834
:102AA0000A308DF80BE08DF80C50FFF7DBF906F8D3
:102AB000014B3046414622463719FFF7D3F9569865
:102AC00026F804B07880281941AC00F10D052046A5
:102AD00000211822FFF7CCF93F20C0F2830041907B
:102AE00001A845900120469020460021CDE943955C
:102AF00000F0BEFA9DF80410002848BFFF210846E8
:102B000047B0BDE8F08F000010B5C6B0002140AC62
:102B10008DF800108DF80100204600211822FFF7E3
:102B2000A7F93F20C0F2850040900DF101004290CE
:102B3000012069464390CDE944102046002100F071
:102B400097FA9DF80010002848BFFF21084646B0BC
:102B500010BD000010B588B0002002AC8DF8070051
:102B6000204600211822FFF783F93F20C0F28100A0
:102B700002900DF1070006900120079020460021E9
:102B800000F076FA9DF80710002848BFFF2108469C
:102B900008B010BD70B5C6B0044600200DF10105A7
:102BA0008DF80000681C22468DF80140FFF75AF9A5
:102BB000661C40AC204600211822FFF759F93F203F
:102BC000C0F28E0040906846449001204590204617
:102BD0000021CDE9425600F04BFA9DF80010002884
:102BE00048BFFF21084646B070BD00002DE9F04FF8
:102BF000C7B00446881EB0FA80F040096E46914680
:102C00000F460501012930464FF000014FF0030245
:102C10009A4608BF0225FFF72BF9012FADF80440B3
:102C20008DF8067006D0022F38D14FF00308102718
:102C300003E000BF4FF0030802270DF1040B509C86
:102C40000BF1030049463A460544FFF70BF951984A
:102C5000AC70E870529841AC2871539800216871AB
:102C600054981822A8712046A5F800A007F10A057B
:102C7000FFF7FEF83F20C0F20410419020460021EB
:102C8000CDE943B5CDE9456800F0F2F9002809D453
:102C90009DF8000050B147B0BDE8F08F972047B0D5
:102CA000BDE8F08FFF2047B0BDE8F08F5598BDF824
:102CB00001100180002047B0BDE8F08F2DE9F04FF2
:102CC000C7B004460238B0FA80F04009E84616461C
:102CD0000F4605014046002103229A46012C08BFF9
:102CE00002254FF00309FFF7C3F8012C8DF80540CA
:102CF00004D0022C2AD1102401E000BF02240DF1DF
:102D0000050B0BF10100394622460544FFF7AAF8EE
:102D10002E7085F801A0E51C41AC20460021182248
:102D2000FFF7A6F83F20C0F2021041902046002194
:102D3000CDE943B5CDE9458900F09AF9002809D4D9
:102D40009DF8000050B147B0BDE8F08F972047B024
:102D5000BDE8F08FFF2047B0BDE8F08F5098BDF878
:102D600001100180002047B0BDE8F08F10B5C8B059
:102D7000002142AC8DF80710ADF808002046002174
:102D80001822FFF775F83F20C0F22510429002A8E4
:102D90004490022045900DF1070046900120479095
:102DA0002046002100F064F99DF80710002848BF74
:102DB000FF21084648B010BD10B588B0002002AC15
:102DC0008DF80700204600211822FFF751F83F2018
:102DD000C0F2011002900DF107000690012007904B
:102DE0002046002100F044F99DF80710002848BF54
:102DF000FF21084608B010BD70B5C8B0DDF830C17D
:102E00001C4602AD0023ADF80800ADF80A108DF89D
:102E10000C20A81D614622468DF807308DF80D4024
:102E2000FFF720F8A61D42AC204600211822FFF72C
:102E30001FF83F20C0F2061042900DF107004690A7
:102E40000120479020460021CDE9445600F010F9BA
:102E50009DF80710002848BFFF21084648B070BD04
:102E600010B5C8B0002142AC8DF80710ADF80800CD
:102E7000204600211822FEF7FBFF3F20C0F2180079
:102E8000429002A84490022045900DF10700469020
:102E9000012047902046002100F0EAF89DF8071035
:102EA000002848BFFF21084648B010BD10B5C6B085
:102EB000002240AC8DF800208DF801008DF8021042
:102EC000204600211822FEF7D3FF3F20C0F20F005A
:102ED00040900DF1010042900220439068464490DA
:102EE000012045902046002100F0C2F89DF8001016
:102EF000002848BFFF21084646B010BD70B5C6B0D7
:102F00000C4600210DF101058DF800108DF801002F
:102F1000A81C114622468DF80240FEF7A3FFA61C0E
:102F200040AC204600211822FEF7A2FF3F20C0F24D
:102F30000C004090684644900120459020460021B6
:102F4000CDE9425600F094F89DF80010002848BFE3
:102F5000FF21084646B070BD0120FFF75FBC0000AE
:102F60000120FFF77FBC000070B584B040F29805E7
:102F70000C464968C2F20005E86205F1100069607C
:102F800000F04AF8246805F10800FEF70DFE40F253
:102F90002C06C2F2000606F108007460FEF704FE7B
:102FA00029690120307039B142F24950C0F6000061
:102FB000009068460294884704B070BD10B5C6B052
:102FC00040AC00238DF801008DF802108DF803202D
:102FD0002046002118228DF80030FEF749FF082016
:102FE000C0F2310040900DF1010042900320439067
:102FF00068464490012045902046002100F038F8B2
:103000009DF80010002848BFFF21084646B010BDBB
:1030100002200021FFF712BC42F29D31C0F60001F0
:10302000016042F2E531C0F6000101617047000025
:1030300010B588B0002002AC8DF8070020460021B2
:103040001822FEF715FF4FF0031002900DF1070054
:103050000690012007902046002100F009F89DF815
:103060000710002848BFFF21084608B010BD000027
:103070002DE9F04F81B040F29808C2F20008D8F86C
:103080000410834609B100208847BBF80200BBF852
:1030900000104FF0010940F22C026FF39F2088F8D6
:1030A0000090C2F2000240EA8124DBE9021053687A
:1030B000C2B2D87203F10C00A3F80940FDF75AF828
:1030C000D8F8202000200021904708F10805EA46A2
:1030D000A7B200E0C6BB48F2E800FFF741FF284670
:1030E000FEF782FD002608E001F10C04207800289C
:1030F000284618BF4E46FEF777FD0028EAD128463D
:103100005146FEF77FFD0099487A0F2808D1B1F8A3
:103110000D00B842E8D1C87ADBF810201070E3E760
:10312000888901F10B04B842E0D1887A0E31033866
:10313000C3B2DBE904029A42C8BF1A46CBF8142096
:10314000FDF718F8D2E700BFD8F8041009B1012044
:103150008847002001B0BDE8F08F0000B0B584B012
:1031600040F22C05C2F2000505F108042046FEF7E6
:103170003BFD00BB2878F0B103A92046FEF742FDD5
:1031800040F29800C2F20000C16A79B1039802903F
:1031900001208DF8040001A888479DF804002870DC
:1031A00030B903992046FEF703FD04E001202870A2
:1031B0000398FFF74DF92046FEF716FD20B9287851
:1031C00010B12046FFF724FF04B0B0BD9CB0FDF75E
:1031D00061FAFEF733FD08AC04F114003421FCF76A
:1031E000E2FF00250795CDE90555CDE90355CDE969
:1031F0000155FDF719FB4FF6904040F20041CFF624
:10320000FF70C5F600010A58022666F3C4020A5090
:103210000868012262F34A200860086800F4C06070
:1032200000900098072008904FF48030CDE9090203
:103230004FF480700B9040200C9020461395FDF7C2
:103240006FFE28B1EFF3108072B600BFFEE700BF3B
:103250006F20CDE9010601A80121CDE90355CDE993
:1032600005550795FDF7E8FC20B1EFF3108072B625
:10327000FEE700BF201D4021FCF795FF4FF44050B2
:1032800008904FF48040199000201A9010201B9055
:103290002046FDF7D3FA28B1EFF3108072B600BFD5
:1032A000FEE700BFFEF762FDFEF750FDFEF774FD7E
:1032B000FEF770FDFEF7E0FCFEF744FDFCE70000C2
:1032C0000220FFF7ABBA00000220FFF7CBBA0000E4
:1032D000F0B583B040F2C8050C464968C2F200055B
:1032E000686205F10800696000F026F840F26006A7
:1032F0002468C2F2000606F108007460FEF754FC70
:1033000001277770696809B101208847A96837707B
:1033100061B142F24150C0F60000009042F28D507F
:10332000C0F60000019068460294884703B0F0BDE3
:1033300004200021FFF782BA42F2BD41C0F600012D
:10334000016042F2F941C0F60001016170470000DE
:103350002DE9F04381B040F2C809C2F200091546D8
:10336000D9F8042098460E4607460AB10020904737
:1033700040F26004C2F200040020607060682946D8
:10338000A0F80970C6720C303246FCF7F3FE012536
:1033900089F80050D9F8182000200021904748F201
:1033A000E800FFF791FF616808F108008A780332AE
:1033B000FCF7E0FE6570D9F8041029B1012001B0D6
:1033C000BDE8F043084700BF01B0BDE8F08300004E
:1033D000B0B584B040F26005C2F2000505F1080402
:1033E0002046FEF701FC00BB2878F0B103A9204677
:1033F000FEF708FC40F2C800C2F20000416A79B151
:103400000398029001208DF8040001A888479DF8D8
:103410000400287030B903992046FEF7C9FB04E088
:10342000012028700398FFF713F82046FEF7DCFB15
:1034300020B9287810B12046FFF77AFF04B0B0BD5C
:1034400002E008C8121F08C1002AFAD1704770476D
:10345000002001E001C1121F002AFBD170470000CB
:1034600000000000000000000000000048350008D7
:10347000440A0320480A0320260404000000000038
:10348000000000000000000000000000000000003C
:10349000440008004005020112299C00F4010000CC
:1034A000FFFFFFFF4801010000200000000372063B
:1034B000000000000D0000000100000003000000FB
:1034C00005000000010000000100000006000000EF
:1034D0000A000000200000000200000004000000BC
:1034E0000800000010000000400000008000000004
:1034F0000001000000020000A0860100400D030052
:10350000801A060000350C0040420F0080841E0027
:1035100000093D0000127A000024F40000366E011C
:103520000048E801006CDC02000000000000000020
:10353000000000000000000004030202010101017C
:103540000000000000000000000000480100000032
:1035500000000048010000000000004801000000D9
:1035600000000048010000000000004801000000C9
:1035700000000048010000000000004801000000B9
:1035800000000048010000000000004801000000A9
:103590000000004801000000000000480100000099
:1035A0000000004801000000000000480100000089
:1035B0000000004801000000000000480100000079
:1035C0000000004801000000000000480100000069
:1035D0000000004801000000000000480100000059
:1035E0000000004801000000000000480100000049
:1035F0000000004801000000000000480100000039
:103600000000004801000000000000480100000028
:103610000000004801000000000000480100000018
:103620000000004801000000000000480100000008
:1036300000000048010000000000004801000000F8
:1036400000000048010000000000004801000000E8
:1036500000000048010000000000004801000000D8
:1036600000000048010000000000004801000000C8
:103670000000004801000000FEDCBA098765432114
:10368000FEDCBA0987654321123456789ABCDEF015
:10369000123456789ABCDEF0EEDDCCBBAA110000E5
:1036A000D036000808000020680000004034000800
:1036B0003837000800000320680A0000E001000815
:1036C0003837000870000020380600005034000829
:1036D0000100000010000000FFFFFFFFFFFFFFFFE1
:1036E0000100000000093D0009096D794465766913
:1036F0006365000000000000000000000000000002
:1037000000000000000000000000000000000000B9
:1037100000000000000000000000000000000000A9
:103720000000000000000000000000000000000099
:10373000000000000000000001FF01FF01FF01FF89
:1037400001FF01FF01FF01FF01FF01FF017D0000FB
:040000050800013DB1
:00000001FF
