:020000040800F2
:10000000B0400020510100087D260008691F00084B
:1000100079260008D90600084935000800000000CC
:10002000000000000000000000000000E12A0008BD
:10003000DD06000800000000ED260008392B00084E
:100040006B0100086B0100086B0100086B010008E0
:100050006B0100086B0100086B0100086B010008D0
:100060006B0100086B0100086B0100086B010008C0
:100070006B0100086B0100086B0100086B010008B0
:100080006B0100086B0100086B0100086B010008A0
:100090006B0100086B0100086B0100086B01000890
:1000A0006B0100086B0100086B0100086B01000880
:1000B0006B0100086B0100086B0100086B01000870
:1000C0006B0100086B0100086B0100086B01000860
:1000D0006B0100086B0100086B0100086B01000850
:1000E0006B0100086B0100086B0100086B01000840
:1000F0006B0100086B0100086B0100086B01000830
:100100006B0100086B0100086B0100086B0100081F
:100110006B0100086B0100086B0100086B0100080F
:100120006B0100086B0100086B0100086B010008FF
:100130006B0100086B0100086B010008DFF80CD0B0
:1001400000F048FA0048004701360008B04000209F
:100150000648804706480047FEE7FEE7FEE7FEE761
:10016000FEE7FEE7FEE7FEE7FEE7FEE7F12B00080D
:100170003D0100082DE9F05F0546002092469B46B0
:1001800088460646814640241BE0284641464746AD
:10019000224600F057F853465A46C01A914110D3F0
:1001A00011461846224600F03EF82D1A67EB01086A
:1001B0004F4622460120002100F035F817EB0009D8
:1001C0004E41201EA4F10104DFDC484631462A4698
:1001D0004346BDE8F09FD2B201E000F8012B491E72
:1001E000FBD270470022F6E710B513460A460446D4
:1001F0001946FFF7F0FF204610BD30B50B4601460B
:1002000000202022012409E021FA02F59D4205D3B5
:1002100003FA02F5491B04FA02F52844151EA2F15F
:100220000102F1DC30BD202A04DB203A00FA02F1A1
:10023000002070479140C2F1200320FA03F31943D4
:1002400090407047202A04DB203A21FA02F0002176
:10025000704721FA02F3D040C2F1200291400843D6
:10026000194670472DE9FE4F804681EA0300C00F12
:100270000C46009021F0004123F00045B8EB02004D
:10028000A94105D24046214690461C460B460246EF
:1002900023F00040104347D0270DC7F30A00C3F3F3
:1002A0000A510290401A019040286BDAC3F3130000
:1002B00040F4801B0098924620B10023D2EB030A41
:1002C00063EB0B0B01985946C0F140025046FFF713
:1002D000AAFF06460D4650465946019A00F08CF991
:1002E00010EB08006141002487EA115284EAE773A9
:1002F0001A4340D0009A62B3019A012A4FEA07528A
:1003000015DC001B61EB02014FF0004202EA0752CC
:10031000CDE90042001C41F5801132462B4600F029
:100320008CF903B0BDE8F08F40462146F9E7001B89
:1003300061EB0201001C41F5801300185B4120189D
:10034000A2F5001747EB030140EAD570B6196D41DD
:1003500011E06D084FEA360645EAC0754FEA0752CC
:10036000001B61EB0201001C41F5801149084FEAB6
:1003700030000019514132462B4603B0BDE8F04F22
:1003800000F04CB90098012240000023D0EB02029B
:1003900063EBE073009821464FEAE074B8EB00008D
:1003A00061EB0401E9E783F000435BE781F0004182
:1003B00058E72DE9FE4F81EA030404F0004421F0E0
:1003C000004100944FF0000B23F0004350EA010479
:1003D0005ED052EA03045BD0C3F30A54C1F30A555A
:1003E0002C44A4F2F3340194A0FB0254C1F3130192
:1003F00041F48011C3F3130343F4801301FB02445F
:1004000000FB034E840A970A44EA815447EA835763
:10041000A4FB076802958D0A05FB07854FEA932C1C
:1004200004FB0C542705029D4FEA065847EA16378D
:10043000B5EB08056EEB070C870E920E47EA8117A5
:1004400042EA8312A7FB0201B6EB0B0164EB000446
:100450002B0D43EA0C335E1844EB1C50DA46514630
:10046000E7FB0201C5F313044FEA0B3343EA1453CD
:100470004FEA0432019C43EA0603A4F10C040294FF
:10048000009CCDE900B400F0D8F803B0BDE8F08FCF
:1004900000200146F9E72DE9F04D81EA030404F05C
:1004A000004B21F0004514464FF0000A23F00041B4
:1004B00050EA050220D054EA01021DD0C5F30A57C4
:1004C0000246C5F31303C1F31300C1F30A5640F407
:1004D000801543F48013A7EB0608101BD64608F2DC
:1004E000FD3873EB050002D308F1010801E0921812
:1004F0005B41B8F1000F03DA00200146BDE8F08D42
:1005000000204FF48011064684460EE0171B73EB63
:10051000050705D3121B63EB050306434CEA010CE8
:1005200049084FEA300092185B4150EA0107EDD1CB
:1005300052EA030012D082EA040083EA050108436C
:1005400005D0101BAB4106D20122002306E0002299
:100550004FF0004302E06FF0010253101AEB060067
:100560004CEB085110EB0A0041EB0B01BDE8F04DDC
:1005700000F054B8C1F30A52C1F3130140F2FF3343
:1005800041F480119A4202DA00200146704740F29D
:1005900033439A42A2F2334202DC5242FFF752BE88
:1005A000FFF741BE30B5041E71F1000404DB4FF0CB
:1005B0000044404264EB0101141E73F1000405DBAA
:1005C0001C464FF00043524263EB0403994208BFBC
:1005D000904230BD064C074D06E0E06840F0010354
:1005E00094E8070098471034AC42F6D3FFF7AAFD11
:1005F00090400008B0400008202A06DBCB17203AC4
:1006000041FA02F043EAE07306E041FA02F3D04017
:10061000C2F12002914008431946704710B5141EDC
:1006200073F1000408DA401C41F1000192185B41AB
:100630001A4301D120F0010010BD2DE9F04D924682
:100640009B4611B1B1FA81F202E0B0FA80F2203299
:100650009046FFF7E8FD04460F4640EA0A0041EAEB
:100660000B0153465A46084313D0114653EA010082
:1006700019D0C8F140025046FFF7E4FD05460E468A
:10068000504659464246FFF7CEFD084305D00120AB
:1006900004E020463946BDE8F08D0020054346EAD7
:1006A000E0762C4337430A986305E40AA0EB080080
:1006B0000022FD0A44EA47540A3002D500200146D0
:1006C000E9E7010510196941DDE9084500196941AB
:1006D000BDE8F04DA2E70000FFE7FEE7704700002D
:1006E00081B0EFF3108072B60090FFE7FEE70000E4
:1006F00080B584B0039000F0CBF90290039801908C
:100700000198013048B1FFE740F21000C2F200004A
:100710000178019808440190FFE7FFE700F0B8F97D
:100720000299401A0199884201D2FFE7F6E704B026
:1007300080BD000089B00890079100200690FFE777
:10074000079800680699C840002800F08881FFE7F4
:1007500007980068069A0121914008400590059885
:10076000002800F07881FFE70798406800F0030058
:10077000012807D0FFE70798406800F0030002282F
:100780002FD1FFE708988068049006984100032065
:1007900000FA01F10498884304900798C06806990C
:1007A000490000FA01F1049808430490049808995C
:1007B00088600898406804900699012000FA01F1C9
:1007C00004988843049007984068C0F30010069985
:1007D00000FA01F1049808430490049808994860CD
:1007E000FFE70798406800F00300032818D0FFE7F0
:1007F0000898C068049006984100032000FA01F1AF
:10080000049888430490079880680699490000FA84
:1008100001F104980843049004980899C860FFE720
:100820000798406800F00300022826D1FFE70898E7
:1008300006996FF0030202EA51010844006A04902D
:10084000069800F0070081000F2000FA01F10498DB
:100850008843049007980069069901F00701890010
:1008600000FA01F104980843049004980899069B43
:1008700002EA530211440862FFE7089800680490F6
:1008800006984100032000FA01F10498884304907F
:100890000798406800F003000699490000FA01F14A
:1008A0000498084304900498089908600798807990
:1008B0008007002800F0CE80FFE7069820F00300B4
:1008C0000821C4F2010140580490069800F003008A
:1008D00081000F2000FA01F10498884304900898E1
:1008E000B0F1904F03D1FFE70020039034E0089867
:1008F00040F20041C4F60001884203D1FFE7012025
:10090000029026E0089840F60001C4F600018842F3
:1009100003D1FFE70220019018E0089840F600415B
:10092000C4F60001884203D1FFE7032000900AE0EB
:10093000089941F20002C4F600020720914208BF64
:1009400004200090FFE700980190FFE701980290D3
:10095000FFE702980390FFE70398069901F003016F
:10096000890000FA01F1049808430490049806995C
:1009700021F003010822C4F20102885040F6000071
:10098000C5F6000000680490059904988843049017
:1009900007988079C006002805D5FFE705990498D7
:1009A00008430490FFE7049840F60001C5F60001F3
:1009B000086040F60400C5F6000000680490059940
:1009C000049888430490079880798006002805D50C
:1009D000FFE70599049808430490FFE7049840F660
:1009E0000401C5F60001086040F68000C5F600006D
:1009F00000680490059904988843049007988079CA
:100A0000C00728B1FFE70599049808430490FFE761
:100A1000049840F68001C5F60001086040F68400A5
:100A2000C5F6000000680490059904988843049076
:100A3000079880798007002805D5FFE70599049875
:100A400008430490FFE7049840F68401C5F60001CE
:100A50000860FFE7FFE706980130069070E609B0EE
:100A60007047000082B00190ADF802108DF80120AF
:100A70009DF8010028B1FFE7BDF8020001998861E7
:100A800004E0BDF8020001998862FFE702B07047F8
:100A900040F2AC00C2F200000068704740F214005F
:100AA000C2F200000068704740F21000C2F200007D
:100AB000027840F2AC01C2F20001086810440860FC
:100AC0007047000080B582B000208DF8070044F226
:100AD0000001C5F60001086840F48070086003203A
:100AE00000F06CF80F2000F00DF820B1FFE70120B6
:100AF0008DF8070002E000F047F8FFE79DF80700D7
:100B000002B080BD80B582B0019000208DF8030056
:100B100040F21000C2F20000007860B3FFE700F07E
:100B20006BFB40F21001C2F200010A784FF47A71B7
:100B3000B1FBF2F1B0FBF1F001F014F8B0B9FFE74E
:100B400001980F280DD8FFE701994FF0FF300022E0
:100B500000F01CF8019840F21401C2F20001086094
:100B600003E001208DF80300FFE703E001208DF88A
:100B70000300FFE703E001208DF80300FFE79DF885
:100B8000030002B080BD00007047000080B586B051
:100B90008DF817000491039202F0D8FC02909DF9A1
:100BA0001700019002980499039A01F069FD01462B
:100BB000019802F0D3FC06B080BD000080B582B081
:100BC0000190019802F0ECFC02B080BD40F20040C0
:100BD000C5F60000006800F4C060704740F20041B4
:100BE000C5F60001086840F4807008607047000096
:100BF00080B588B0079000208DF817008DF816009A
:100C0000079800784006002838D5FFE70798006B62
:100C10000190B8B1FFE70198B0F5800F0AD0FFE767
:100C20000198B0F5000F15D0FFE70198B0F5400F1F
:100C30000FD010E00C21C5F60001086840F48030A8
:100C400008600CE00798043001F06AFD8DF8170089
:100C500005E004E003E001208DF81700FFE79DF8B0
:100C6000170028B9FFE70798006B01F04BFC04E080
:100C70009DF817008DF81600FFE7FFE7079840780A
:100C80000007002850D5FFE701F0E2F9049004982E
:100C90000799096C884241D0FFE7FFF79FFF04984E
:100CA00028B9FFE70798006C01F01EFC31E09020A6
:100CB000C5F6000000900068039001F095F901F07E
:100CC00065FB0099039820F44070079A126C10435A
:100CD00003900398086001F075FA012818D1FFE726
:100CE000FFF7D6FE0690FFE701F07CFA01280ED050
:100CF000FFE7FFF7CDFE0699401A41F2893188429D
:100D000004D3FFE703208DF8170000E0ECE7FFE7CE
:100D1000FFE79DF817008DF8160004E09DF8170016
:100D20008DF81600FFE7FFE707980078C00728B1A5
:100D3000FFE70798806901F01DFCFFE7079800783E
:100D40008007002805D5FFE70798C06901F0A2FBDE
:100D5000FFE707980078C006002805D5FFE7079849
:100D6000806A01F085FBFFE707980078800600287D
:100D700005D5FFE70798C06A01F07AFBFFE70798FF
:100D800000784007002805D5FFE70798006A01F0C2
:100D90005BFBFFE7079800780007002805D5FFE711
:100DA0000798406A01F050FBFFE707984078C007BA
:100DB00048B3FFE70798406B01F0EAFB0798406BE8
:100DC000B0F1006F08D1FFE70C21C5F600010868FB
:100DD00040F080700860FFE70798406BB0F1806FCB
:100DE00010D1FFE70798043001F0F6FC8DF81700EA
:100DF0009DF8170028B1FFE79DF817008DF8160041
:100E0000FFE7FFE7FFE7079840788007002832D523
:100E1000FFE7FFE70798806BB0F1804F0AD0FFE74C
:100E20000798806BB0F1004F04D0FFE70798806B04
:100E300028B9FFE70798806B01F048FB0BE00798A3
:100E4000806B20F080500290002001F03FFB029860
:100E500001F0ECFAFFE7FFE70798806BB0F1C05FA5
:100E600008D1FFE70C21C5F60001086840F080704A
:100E70000860FFE7FFE7079840784007002829D57A
:100E8000FFE70798C06B01F089FA0798C06BB0F1D3
:100E9000005F08D1FFE70C21C5F60001086840F4A7
:100EA00080300860FFE70798C06BB0F1805F10D119
:100EB000FFE70798043001F0EBFC8DF817009DF870
:100EC000170028B1FFE79DF817008DF81600FFE71F
:100ED000FFE7FFE707984078C006002805D5FFE741
:100EE0000798406C01F0E4FAFFE707984078800625
:100EF000002809D5FFE70798C06C01F01FFB079891
:100F0000806C01F00DFBFFE79DF8160008B080BD76
:100F100080B584B002900191029820B9FFE70120CA
:100F20008DF80F0064E1019844F20001C5F600015C
:100F3000096801F00701884226D9FFE744F2000161
:100F4000C5F60001086820F00700019A1043086008
:100F5000FFF79EFD0090FFE744F20000C5F6000099
:100F6000006800F00700019988420CD0FFE7FFF706
:100F70008FFD0099401A032804D3FFE703208DF862
:100F80000F0035E1E8E7FFE70298007880070028C6
:100F900019D5FFE70298806801F01EFAFFF778FD87
:100FA0000090FFE701F0CEF860B9FFE7FFF770FDB2
:100FB0000099401A032804D3FFE703208DF80F009F
:100FC00016E1EFE7FFE7029800788006002819D5C0
:100FD000FFE70298406900F0F9FFFFF759FD009024
:100FE000FFE701F0A7F860B9FFE7FFF751FD0099AF
:100FF000401A032804D3FFE703208DF80F00F7E021
:10100000EFE7FFE7029800784006002819D5FFE7D0
:101010000298806901F0D0F9FFF73AFD0090FFE7F0
:1010200001F0A8F860B9FFE7FFF732FD0099401A18
:10103000032804D3FFE703208DF80F00D8E0EFE783
:10104000FFE7029800784007002819D5FFE70298CB
:10105000C06801F0CFF9FFF71BFD0090FFE701F03A
:1010600079F860B9FFE7FFF713FD0099401A0328EC
:1010700004D3FFE703208DF80F00B9E0EFE7FFE7A7
:1010800002980078000700281AD5FFE70298006947
:10109000C00001F0BDF9FFF7FBFC0090FFE701F095
:1010A00061F860B9FFE7FFF7F3FC0099401A0328E5
:1010B00004D3FFE703208DF80F0099E0EFE7FFE787
:1010C00002980078C007002853D0FFE702984068D4
:1010D000022809D1FFE700F0EBFF20B9FFE701206C
:1010E0008DF80F0084E025E002984068032809D1BC
:1010F000FFE701F045F920B9FFE701208DF80F0067
:1011000076E016E00298406848B9FFE701F0D2F8AF
:1011100020B9FFE701208DF80F0069E008E000F03A
:10112000F5FF20B9FFE701208DF80F0060E0FFE731
:10113000FFE7FFE70298406801F00EFAFFF7A8FC0E
:101140000090FFE700F08CFF02994968B0EB810F37
:101150000ED0FFE7FFF79CFC0099401A41F289315D
:10116000884204D3FFE703208DF80F0040E0E9E751
:10117000FFE7019844F20001C5F60001096801F09B
:101180000701884226D2FFE744F20001C5F60001BC
:10119000086820F00700019A10430860FFF778FC08
:1011A0000090FFE744F20000C5F60000006800F080
:1011B0000700019988420CD0FFE7FFF769FC00990E
:1011C000401A032804D3FFE703208DF80F000FE037
:1011D000E8E7FFE700F010F840F20C01C2F200016E
:1011E0000860FFF75BFCFFF78DFC8DF80F00FFE751
:1011F0009DF80F0004B080BD80B582B000F03EF8CD
:10120000019000F003FF0146019801F0F0018A0807
:1012100043F69471C0F600018958B0FBF1F002B0BA
:1012200080BD000080B582B0FFF7E6FF019000F0BE
:10123000F5FE0146019801F4E0618A0943F6D47194
:10124000C0F60001895801F01F01C84002B080BDFE
:1012500080B582B0FFF7D0FF019000F0E7FE0146B5
:10126000019801F460514A0A43F6D471C0F60001B6
:10127000895801F01F01C84002B080BD80B58AB016
:1012800000F0EEFE0690069860B9FFE701F000F866
:1012900000F0F000810843F6F470C0F600004058FA
:1012A000089074E00698042806D1FFE742F2004057
:1012B000C0F2F400089069E00698082812D1FFE710
:1012C00000F0F0FE012806D1FFE740F60010C0F262
:1012D0003D00089005E041F20020C0F27A0008903D
:1012E000FFE752E001F034F80990099805900128D1
:1012F00020D0FFE70598022804D0FFE705980328CF
:1013000006D018E042F20040C0F2F40007901EE060
:1013100000F0C8FE012806D1FFE740F60010C0F239
:101320003D00079005E041F20020C0F27A000790EE
:10133000FFE70CE0FFE700F0ABFF00F0F0008108F2
:1013400043F6F470C0F6000040580790FFE7079896
:10135000019001F005F8014601984843029000F021
:10136000EFFF024602980121039101EB1211B0FB3D
:10137000F1F0049000F0FCFF03990246049801EBA1
:101380005271B0FBF1F00890FFE7FFE7FFE7089824
:101390000AB080BD10B58EB00C900C9820B9FFE754
:1013A00001208DF83700D9E30C98007880060028DA
:1013B00040F19C80FFE700F053FE0A9000F0C8FF68
:1013C00009900A9840B1FFE70A980C2852D1FFE72C
:1013D000099801284ED1FFE70C98C06920B9FFE7B2
:1013E00001208DF83700B9E30C98406A029000F0B4
:1013F0004FFF01460298884213D9FFE70C98406AD4
:1014000001F032FB20B1FFE701208DF83700A5E3A2
:101410000C98406A00F062FF0C98006A00F050FFE0
:1014200012E00C98406A00F059FF0C98006A00F036
:1014300047FF0C98406A01F017FB20B1FFE701203D
:101440008DF837008AE3FFE7FFF7D6FE40F20C0184
:10145000C2F20001086040F21400C2F2000000680D
:10146000FFF750FB20B1FFE701208DF8370075E34F
:10147000FFE73AE00C98C069F8B1FFE700F000FF21
:10148000FFF706FB0B90FFE700F014FF60B9FFE7E2
:10149000FFF7FEFA0B99401A032804D3FFE7032055
:1014A0008DF837005AE3EFE70C98406A00F016FF1A
:1014B0000C98006A00F004FF16E000F0D9FEFFF778
:1014C000E7FA0B90FFE700F0F5FE60B1FFE7FFF7EA
:1014D000DFFA0B99401A032804D3FFE703208DF8A5
:1014E00037003BE3EFE7FFE7FFE7FFE70C98007803
:1014F000C007002859D0FFE700F0B2FD089000F0C7
:1015000027FF07900898082808D0FFE708980C28BC
:101510000DD1FFE70798032809D1FFE70C98406831
:1015200020B9FFE701208DF8370017E33CE0FFE723
:101530000C984068B0F5803F03D1FFE700F0AAFDAA
:1015400002E000F09FFDFFE7FFE70C984068A8B1BC
:10155000FFE7FFF79DFA0B90FFE700F0A9FD60B9E8
:10156000FFE7FFF795FA0B99401A652804D3FFE7C8
:1015700003208DF83700F1E2EFE714E0FFF788FA77
:101580000B90FFE700F094FD60B1FFE7FFF780FAF2
:101590000B99401A652804D3FFE703208DF8370024
:1015A000DCE2EFE7FFE7FFE7FFE70C980078800752
:1015B000002858D5FFE700F053FD069000F0C8FE64
:1015C00005900698042808D0FFE706980C2812D149
:1015D000FFE7059802280ED1FFE70C98C06820B9F4
:1015E000FFE701208DF83700B8E20C98006900F0A1
:1015F00093FDFFE736E00C98C068D8B1FFE700F034
:101600007DFDFFF745FA0B90FFE700F07FFD60B925
:10161000FFE7FFF73DFA0B99401A032804D3FFE7D1
:1016200003208DF8370099E2EFE70C98006900F08D
:1016300073FD16E000F05AFDFFF72AFA0B90FFE762
:1016400000F064FD60B1FFE7FFF722FA0B99401A42
:10165000032804D3FFE703208DF837007EE2EFE78D
:10166000FFE7FFE7FFE70C98006800F00800082894
:1016700007D0FFE70C980078C006002840F1B18041
:10168000FFE70C98406900287DD0FFE70C980078B0
:10169000C00600284CD5FFE700F0BCFDB8B9FFE755
:1016A00000F0B0FDFFF7F4F90B90FFE700F0B2FD9A
:1016B00060B9FFE7FFF7ECF90B99401A032804D350
:1016C000FFE703208DF8370048E2EFE7FFE700F07F
:1016D000B1FDFFF7DDF90B90FFE700F0B3FD60B956
:1016E000FFE7FFF7D5F90B99401A042804D3FFE769
:1016F00003208DF8370031E2EFE70C98806900F0A5
:10170000A9FD00F077FDFFF7C3F90B90FFE700F0AC
:1017100081FD60B1FFE7FFF7BBF90B99401A032881
:1017200004D3FFE703208DF8370017E2EFE729E045
:1017300000F068FDFFF7ACF90B90FFE700F06AFDE1
:1017400060B9FFE7FFF7A4F90B99401A032804D307
:10175000FFE703208DF8370000E2EFE700F062FDBD
:10176000FFE700F06FFD60B1FFE7FFF791F90B991C
:10177000401A042804D3FFE703208DF83700EDE179
:10178000EFE7FFE72CE000F04DFDFFF781F90B904C
:10179000FFE700F057FD60B1FFE7FFF779F90B991C
:1017A000401A042804D3FFE703208DF83700D5E161
:1017B000EFE700F01FFDFFF76BF90B90FFE700F07C
:1017C00029FD60B1FFE7FFF763F90B99401A032881
:1017D00004D3FFE703208DF83700BFE1EFE7FFE711
:1017E000FFE70C9800784007002872D5FFE740F229
:1017F0000040C5F600000068C00500281CD4FFE7C3
:10180000FFF7ECF9FFF744F90B90FFE740F20040D7
:10181000C5F600000068C00500280CD4FFE7FFF7FC
:1018200037F90B99401A032804D3FFE703208DF8FA
:10183000370093E1EAE7FFE7FFE70C9880680128AB
:1018400003D1FFE700F0AEFC0FE00C98806805289C
:1018500005D1FFE700F0AEFC00F0A4FC04E000F0CE
:1018600091FC00F097FCFFE7FFE7FFE70C9880682A
:10187000B8B1FFE7FFF70CF90B90FFE700F0AAFC07
:1018800070B9FFE7FFF704F90B99401A41F289316B
:10189000884204D3FFE703208DF837005EE1EDE7CF
:1018A00016E0FFF7F5F80B90FFE700F093FC70B13E
:1018B000FFE7FFF7EDF80B99401A41F289318842B2
:1018C00004D3FFE703208DF8370047E1EDE7FFE79A
:1018D000FFE70C9800784006002833D5FFE70C9806
:1018E000806AB8B1FFE700F0F1FBFFF7D1F80B9089
:1018F000FFE700F0F3FB60B9FFE7FFF7C9F80B99CA
:10190000401A032804D3FFE703208DF8370025E1B0
:10191000EFE716E000F0D2FBFFF7BAF80B90FFE715
:1019200000F0DCFB60B1FFE7FFF7B2F80B99401A5B
:10193000032804D3FFE703208DF837000EE1EFE71B
:10194000FFE7FFE70C98C06A002800F00381FFE77B
:1019500000F086FB04900C20C5F6000000680390A0
:101960000C98C06A022840F0C780FFE7039800F097
:1019700003000C99096B884229D1FFE7039800F016
:1019800070000C99496B884221D1FFE7039800F45D
:10199000FE410C98806BB0EB112F18D1FFE7039834
:1019A00000F478100C99C96B884210D1FFE70398B6
:1019B00000F060600C99096C884208D1FFE7039839
:1019C00000F060400C99496C88426BD0FFE70498A6
:1019D0000C2862D0FFE74FF0B040006840010028BB
:1019E00004D5FFE701208DF83700B7E000F098FC40
:1019F000FFF74EF80B90FFE74FF0B0400068800112
:101A000000280CD5FFE7FFF743F80B99401A03288D
:101A100004D3FFE703208DF837009FE0ECE70C21AB
:101A2000C5F600010191086848F28C02C1F2C112AA
:101A300010400C9B1A6B5C6BD3F838E0D3F83CC0B9
:101A4000224342EA0E2242EA0C02D3F840C042EAA4
:101A50000C025B6C1A431043086000F069FC0199AA
:101A6000086840F080500860FFF712F80B90FFE71D
:101A70004FF0B0400068800100280CD4FFE7FFF76A
:101A800007F80B99401A032804D3FFE703208DF8C9
:101A9000370063E0ECE7FFE703E001208DF8370053
:101AA0005CE028E04FF0B04000688001002821D4BD
:101AB000FFE700F03DFC0C21C5F60001086840F08E
:101AC00080500860FEF7E4FF0B90FFE74FF0B04056
:101AD0000068800100280CD4FFE7FEF7D9FF0B99BE
:101AE000401A032804D3FFE703208DF8370035E0C0
:101AF000ECE7FFE7FFE72CE004980C2824D0FFE791
:101B000000F00EFCFEF7C4FF0B90FFE74FF0B04073
:101B10000068800100280CD5FFE7FEF7B9FF0B999C
:101B2000401A032804D3FFE703208DF8370015E09F
:101B3000ECE70C21C5F6000108684FF6FC72CEF602
:101B4000FE621040086003E001208DF8370005E0D8
:101B5000FFE7FFE700208DF83700FFE79DF837002B
:101B60000EB010BD80B582B00190019800F0BAFFB0
:101B700002B080BD83B00190FFE7019890F8840027
:101B8000012804D1FFE702208DF80B002CE0019919
:101B9000012081F88400FFE7FFE701992420C1F8C4
:101BA0008800019800680068009001980168086842
:101BB00020F001000860009820F00050009001998A
:101BC0000020486600980199096808600199202062
:101BD000C1F88800FFE70199002081F88400FFE741
:101BE00000208DF80B00FFE79DF80B0003B0704755
:101BF00080B584B002900191FFE7029890F88400CC
:101C0000012804D1FFE702208DF80F0032E002998D
:101C1000012081F88400FFE7FFE702992420C1F842
:101C200088000298006800680090029801680868BF
:101C300020F00100086002980068806820F0606071
:101C400001990843029909688860029801F010F828
:101C5000009802990968086002992020C1F888005C
:101C6000FFE70299002081F88400FFE700208DF84B
:101C70000F00FFE79DF80F0004B080BD80B584B071
:101C800002900191FFE7029890F88400012804D1A6
:101C9000FFE702208DF80F0032E00299012081F861
:101CA0008400FFE7FFE702992420C1F8880002982A
:101CB00000680068009002980168086820F0010040
:101CC000086002980068806820F06040019908432D
:101CD000029909688860029800F0CAFF009802998A
:101CE0000968086002992020C1F88800FFE702997E
:101CF000002081F88400FFE700208DF80F00FFE747
:101D00009DF80F0004B080BD80B582B000900098AF
:101D100020B9FFE701208DF8070046E000988069B0
:101D200008B1FFE700E0FFE70098D0F8880040B96D
:101D3000FFE70099002081F88400009800F03AF84D
:101D4000FFE700992420C1F888000098016808681E
:101D500020F0010008600098806A20B1FFE7009839
:101D600000F0CAFFFFE7009801F05EF9012804D1F6
:101D7000FFE701208DF8070017E000980168486828
:101D800020F49040486000980168886820F02A009C
:101D9000886000980168086840F0010008600098B9
:101DA00001F04EF88DF80700FFE79DF8070002B03C
:101DB00080BD000080B59CB01B9000201A90199047
:101DC00018901790169002A85021FEF70BFA1B9856
:101DD000006843F60001C4F20101884225D1FFE703
:101DE000012002900020089002A8FEF701FF18B120
:101DF000FFE7FEF775FCFFE74FF4804000F0D6F8F0
:101E00000220019000F0C2F80198C02116911790AD
:101E100000201890199007201A9040F20040C4F654
:101E2000000016A9FEF786FCFFE71CB080BD00008D
:101E300080B58AB008900791ADF81A2005930898EC
:101E4000D0F88800202840F08780FFE7079820B16D
:101E5000FFE7BDF81A0020B9FFE701208DF8270041
:101E60007EE008990020C1F8900008992120C1F86F
:101E70008800FEF70DFE0290BDF81A000899A1F83F
:101E80005400BDF81A000899A1F856000898806817
:101E9000B0F5805F09D1FFE70898006928B9FFE72E
:101EA000002004900798039004E007980490002015
:101EB0000390FFE7FFE70898B0F8560088B3FFE704
:101EC0000898029B05996A4611608021002201F062
:101ED000B5FA40B1FFE708992020C1F88800032037
:101EE0008DF827003CE0049858B9FFE70398008874
:101EF0006FF35F20089909688862039802300390A5
:101F000008E004980078089909688862049801300C
:101F10000490FFE70899B1F856000138A1F856007F
:101F2000C9E70898029B05996A4611604021002282
:101F300001F084FA40B1FFE708992020C1F8880039
:101F400003208DF827000BE008992020C1F88800B5
:101F500000208DF8270003E002208DF82700FFE71E
:101F60009DF827000AB080BDFFE7FEE782B0019030
:101F7000019A4C20C5F60000016811430160006819
:101F8000019908400090009802B0704782B001901B
:101F9000019A4C20C5F600000168114301600068F9
:101FA000019908400090009802B0704782B00190FB
:101FB000019A6020C5F600000168114301600068C5
:101FC000019908400090009802B0704781B00090DD
:101FD00040F20811C5F60001086820F0F000009AF0
:101FE0001043086001B070479021C5F600010868F1
:101FF00040F480300860704740F20810C5F60000D9
:10200000006800F00F000001704700000820C5F6CE
:102010000000006800F0F000704700000820C5F6DE
:102020000000006800F4E060704700000820C5F67A
:102030000000006800F460507047000081B000901C
:102040008820C5F6000000680099084001B070477C
:102050009020C5F60000006800F440707047000052
:102060000820C5F60000006800F00C007047000072
:1020700081B000908820C5F60000006800990840F3
:1020800001B070474FF0B041086820F4803008601C
:10209000704700004FF0B041086840F4803008609D
:1020A000704700004FF0B0400068C0F30050704728
:1020B0004FF0B0400068C0F3404070479821C5F62B
:1020C0000001086820F00100086070479821C5F6FB
:1020D0000001086840F00100086070479820C5F6CC
:1020E00000000068C0F34000704700004FF0B041AE
:1020F000086820F480700860704700004FF0B0411D
:10210000086840F480700860704700004FF0B040ED
:102110000068C0F38020704781B000900421C5F6AC
:102120000001086820F0FE40009A40EA0260086062
:1021300001B0704740F20810C5F600000068C0F317
:10214000404070470820C5F600000068C0F300401A
:10215000704700000820C5F600000068C0F340404A
:10216000704700000820C5F600000068C0F38040FA
:102170007047000040F20810C5F600000068C0F388
:10218000004070479021C5F60001086820F001006A
:10219000086070479021C5F60001086820F004002F
:1021A000086070479021C5F60001086840F0010002
:1021B000086070479021C5F60001086840F00400EF
:1021C000086070479020C5F60000006800F001002C
:1021D000704700009020C5F600000068C0F3400082
:1021E000704700009020C5F600000068C0F3400072
:1021F000704700009421C5F60001086820F0010036
:10220000086070479421C5F60001086840F001009D
:10221000086070479420C5F600000068C0F34000D5
:10222000704700009421C5F60001086820F0040002
:10223000086070479421C5F60001086840F004006A
:10224000086070479420C5F600000068C0F3C00025
:102250007047000081B000909421C5F60001086825
:1022600020F47060009A40EA0220086001B07047D4
:102270004FF0B041086820F001000860704700008E
:102280004FF0B041086840F001000860704700005E
:1022900081B04FF0B040006800F0F000009000986E
:1022A000B12803D3FFE7B0200090FFE7009801B00A
:1022B000704700004FF0B0400068C0F34000704726
:1022C00081B000900421C5F60001086820F47F4029
:1022D000009A40EA0220086001B0704781B0009087
:1022E0004FF0B041086820F0F000009A10430860F9
:1022F00001B070474FF0B041086820F0806008607E
:10230000704700004FF0B041086840F080600860FE
:10231000704700004FF0B0400068C0F3C0607047E5
:102320004FF0B041086820F08070086070470000EE
:102330004FF0B041086840F08070086070470000BE
:102340000C20C5F60000006800F070007047000027
:102350000C20C5F60000006800F003007047000084
:102360000C20C5F600000068C0F30620704700008E
:102370000C20C5F60000006800F0604070470000C7
:102380004FF0B0400068C0F3406070479021C5F640
:102390000001086820F480300860704781B0009028
:1023A0008821C5F60001086820F04050009A1043CB
:1023B000086001B07047000081B0009040F2081141
:1023C000C5F60001086820F00F00009A40EA1210DC
:1023D000086001B07047000081B000900821C5F688
:1023E0000001086820F0F000009A1043086001B076
:1023F0007047000081B000900821C5F60001086810
:1024000020F4E060009A1043086001B070470000BB
:1024100081B000900821C5F60001086820F46050E2
:10242000009A1043086001B07047000081B000902E
:102430008821C5F60001086820F04060009A10432A
:10244000086001B07047000081B000908821C5F697
:1024500000010868009A6FF47F2363EA12131840A2
:1024600002F47F4240EA0210086001B070470000A9
:1024700081B000908821C5F600010868009A4FF6E7
:10248000FF7363EA0203184040EA0240086001B0AB
:102490007047000081B000908821C5F600010868EF
:1024A00020F44060009A1043086001B070470000BB
:1024B00081B000909421C5F60001086820F44040E6
:1024C000009A1043086001B07047000081B000908E
:1024D0008821C5F60001086820F04040009A1043AA
:1024E000086001B07047000081B000909021C5F6EF
:1024F0000001086820F44070009A1043086001B0A1
:102500007047000081B000908821C5F6000108687E
:1025100020F44000009A1043086001B070470000AA
:1025200081B000902421C5F60001086820F0030066
:10253000009A1043086001B07047000081B000901D
:102540002421C5F60001086820F03000009A1043ED
:10255000086001B07047000081B000900821C5F606
:102560000001086820F00300009A1043086001B0E1
:102570007047000081B000908821C5F6000108680E
:1025800020F00300009A1043086001B0704700007B
:1025900080B582B001900198FFF748FF02B080BD7E
:1025A00080B588B0002001900790069005900490B7
:1025B00003900220FFF7DAFC019A40F20040C4F6D3
:1025C0000000029023210091FEF74CFA009A019935
:1025D00002980392012204920591069103A9FEF745
:1025E000A9F808B080BD000080B582B040F21800A4
:1025F000C2F20000009043F60001C4F20101016044
:102600004FF4E1314160002101918160C1600161BD
:102610000C2242618161C161016241628162FFF706
:1026200073FB18B1FFE7FEF75BF8FFE740F2180015
:10263000C2F200000021FFF721FB18B1FFE7FEF70F
:102640004FF8FFE740F21800C2F200000021FFF748
:10265000CFFA18B1FFE7FEF743F8FFE740F21800A2
:10266000C2F20000FFF786FA18B1FFE7FEF738F86C
:10267000FFE702B080BD0000FFE7FEE7FFE7FEE7EF
:1026800088B0079006910592079800F00700049023
:102690000498C0F10700052803D3FFE70420019048
:1026A00004E00498C0F107000190FFE7019803904F
:1026B00004980430062803D8FFE70020009003E0C8
:1026C000049803380090FFE7009802900698039959
:1026D000012202FA01F101390840029B9840059954
:1026E0009A40013A1140084308B070477047000013
:1026F00080B596B002A801905021FDF773FD0198B6
:102700004FF4005102910021149110211591FEF710
:102710006FFA18B1FFE7FDF7E3FFFFE716B080BDE2
:1027200080B584B0039000208DF80700FFF7E2FD2C
:10273000FEF7AEF90290FFE7FFF7ECFD60B1FFE7AF
:10274000FEF7A6F90299401A032804D3FFE70320F5
:102750008DF8070000E0EFE79DF80700B8BBFFE742
:102760001021C5F60001086820F4FE40039A1268A3
:1027700040EA02200860086820F47810039A526842
:1027800010430860FFF7BEFDFEF782F90290FFE7F5
:10279000FFF7C0FD01280CD0FFE7FEF779F9029999
:1027A000401A032804D3FFE703208DF8070000E058
:1027B000EEE79DF8070048B9FFE70398026910218A
:1027C000C5F60001086810430860FFE7FFE79DF8C1
:1027D000070004B080BD000080B584B003900020E5
:1027E0008DF80700FFF786FDFEF752F90290FFE72C
:1027F000FFF790FD60B1FFE7FEF74AF90299401A32
:10280000032804D3FFE703208DF8070000E0EFE77B
:102810009DF80700B8BBFFE71021C5F60001086866
:1028200020F4FE40039A126840EA0220086008681B
:1028300020F06060039A926810430860FFF762FD21
:10284000FEF726F90290FFE7FFF764FD01280CD0A0
:10285000FFE7FEF71DF90299401A032804D3FFE7AA
:1028600003208DF8070000E0EEE79DF8070048B967
:10287000FFE7039802691021C5F6000108681043BC
:102880000860FFE7FFE79DF8070004B080BD000087
:1028900080B584B0039000208DF80700FFF72AFD73
:1028A000FEF7F6F80290FFE7FFF734FD60B1FFE7AF
:1028B000FEF7EEF80299401A032804D3FFE703203D
:1028C0008DF8070000E0EFE79DF80700B8BBFFE7D1
:1028D0001021C5F60001086820F4FE40039A126832
:1028E00040EA02200860086820F06040039AD2683D
:1028F00010430860FFF706FDFEF7CAF80290FFE7F5
:10290000FFF708FD01280CD0FFE7FEF7C1F8029998
:10291000401A032804D3FFE703208DF8070000E0E6
:10292000EEE79DF8070048B9FFE703980269102118
:10293000C5F60001086810430860FFE7FFE79DF84F
:10294000070004B080BD000080B592B010900F91D8
:1029500044F25C03C0F60003186859689A68DB68A3
:102960000E930D920C910B9043F68872C0F6000204
:102970001068516892680A920991089044F26C03B9
:10298000C0F60003186859689A68DB6807930692D6
:1029900005910490002003900F98B0F5007F1BD1A3
:1029A000FFE700200190FFE70198032813D8FFE715
:1029B0001098019A0BA951F82210884206D8FFE717
:1029C000019904A850F82100039004E0FFE7019862
:1029D00001300190E8E71AE000200090FFE700983E
:1029E000022813D8FFE71098009A08A951F822107E
:1029F000884206D8FFE7009904A850F82100039008
:102A000004E0FFE7009801300090E8E7FFE744F2B8
:102A10000001C5F60001086820F00700039A104382
:102A20000860FEF735F80290FFE744F20000C5F6B3
:102A30000000006800F00700039988420CD0FFE70F
:102A4000FEF726F80299401A032804D3FFE7032073
:102A50008DF8470004E0E8E700208DF84700FFE725
:102A60009DF8470012B080BD80B586B005900598EE
:102A7000B12807D3FFE743F6F470C0F60000C06A40
:102A800003900AE0059800F0F000810843F6F47026
:102A9000C0F6000040580390FFE703980190FFF74D
:102AA000ABFA024601983C2101EA920243F6947186
:102AB000C0F600018958B0FBF1F0049004984DF67F
:102AC0008361C4F21B31A0FB0110800C0290FEF761
:102AD0007DF801460298FFF737FF06B080BD000081
:102AE0007047000080B582B0009000980138B0F1C6
:102AF000807F03D3FFE70120019019E0009801389F
:102B00004EF21401CEF2000108604FF0FF300F21A9
:102B100000F024FD4EF21801CEF200010020086002
:102B20004EF21002CEF20002072111600190FFE781
:102B3000019802B080BD000080B5FDF7B5FF80BDF3
:102B400080B59AB008A84821FDF74CFB00200790FB
:102B5000069005900490039002900190FFE740F2E8
:102B60000040C5F600000168012262F34A210160BD
:102B7000006800F4C06000900098FFE722200890F1
:102B80004FF480700B9001210F9140200C90002099
:102B9000109060221192022213921491159020201D
:102BA00016904FF4003017904FF0005019904FF0EE
:102BB0000070189008A8FEF7EDFB18B1FFE7FDF7CD
:102BC0008FFDFFE76F200190032102910020039009
:102BD0000490059080220692079001A8FEF798F9CC
:102BE00018B1FFE7FDF77CFDFFE71AB080BD0000DC
:102BF0004EF68851CEF20001086840F4700008607B
:102C00004FF0B041086840F0010008600822C5F6A6
:102C100000024FF4E020106008684FF6FB62CFF628
:102C2000F622104008609422C5F60002106820F0D9
:102C3000050010609822C5F60002106820F001001F
:102C400010600C22C5F6000241F20000C2F204201E
:102C500010601022C5F600021060086820F4802081
:102C600008601821C5F600010020086070470000C8
:102C700082B001900198406E40B9FFE701990120B0
:102C8000A1F86A000199A1F8680032E008208DF8E7
:102C900003008DF80200019800688068C0F342606C
:102CA0008DF80100019800688068400F8DF80000E1
:102CB0009DF802009DF8002044F23C03C0F600039A
:102CC000995C484344F23401C0F600018A5CB0FBD1
:102CD000F2F0019AA2F86A009DF803009DF8012025
:102CE0009B5C5843895CB0FBF1F00199A1F8680046
:102CF000FFE702B07047000081B00090009890F8A4
:102D00002800000700280BD5FFE7009800684068FE
:102D100020F40040009A1168926B10434860FFE76E
:102D2000009890F82800C00758B1FFE700980068A5
:102D3000406820F40030009A1168D26A104348605D
:102D4000FFE7009890F82800800700280BD5FFE7E0
:102D500000980068406820F48030009A1168126B77
:102D600010434860FFE7009890F8280040070028CB
:102D70000BD5FFE700980068406820F48020009A97
:102D80001168526B10434860FFE7009890F82800E4
:102D9000C00600280BD5FFE700980068806820F483
:102DA0008050009A1168D26B10438860FFE700984A
:102DB00090F82800800600280BD5FFE700980068EF
:102DC000806820F40050009A1168126C10438860EB
:102DD000FFE7009890F82800400600281CD5FFE780
:102DE00000980068406820F48010009A1168526CC6
:102DF000104348600098406CB0F5801F0BD1FFE78E
:102E000000980068406820F4C000009A1168926C35
:102E100010434860FFE7FFE7009890F8280000069D
:102E200000280BD5FFE700980068406820F40020D8
:102E3000009A1168D26C10434860FFE701B07047F8
:102E400080B588B0069006990020C1F89000FDF783
:102E50001FFE0590069800680068000700282FD51F
:102E6000FFE70698059B6A466FF07E4111604FF4BC
:102E70000011002200F0E2FA08B3FFE7FFE7FFE7E6
:102E80000698006850E8000F20F080000490FFE7EB
:102E900004990698026842E800100028F0D1FFE784
:102EA000FFE706992020C1F88800FFE70699002077
:102EB00081F88400FFE703208DF81F005FE0FFE743
:102EC0000698006800684007002842D5FFE706988A
:102ED000059B6A466FF07E4111604FF4800100222D
:102EE00000F0ACFAA0B3FFE7FFE7FFE70698006841
:102EF00050E8000F20F490700390FFE703990698C4
:102F0000026842E800100028F0D1FFE7FFE7FFE782
:102F1000FFE70698006850E8020F20F001000290D9
:102F2000FFE702990698026842E802100028F0D1F3
:102F3000FFE7FFE706992020C1F88C00FFE706991C
:102F4000002081F88400FFE703208DF81F0016E0C1
:102F5000FFE706992020C1F888000699C1F88C0087
:102F600006990020C86606990867FFE706990020C1
:102F700081F88400FFE700208DF81F00FFE79DF82F
:102F80001F0008B080BD000084B00390FFE7FFE79A
:102F90000398006850E8000F20F490700290FFE75B
:102FA00002990398026842E800100028F0D1FFE778
:102FB000FFE7FFE7FFE70398006850E8020F4FF6CE
:102FC000FE71CEF6FF7108400190FFE7019903986A
:102FD000026842E802100028EDD1FFE7FFE70398FE
:102FE000C06E012814D1FFE7FFE7FFE703980068F0
:102FF00050E8000F20F010000090FFE700990398C0
:10300000026842E800100028F0D1FFE7FFE7FFE781
:1030100003992020C1F88C0003990020C866039909
:10302000486704B07047000080B58EB00D90002056
:103030008DF827000D98006848F20001C4F20001E5
:10304000884201D1FFE700E0FFE70D9988680B692E
:103050004A69C9691843104308430C900D980068E9
:10306000006846F6F311CCF6FF7108400C9908434E
:103070000D99096808600D980068406820F4405078
:103080000D9A1168D268104348600D9880690C90C1
:103090000D98006848F20001C4F20001884206D091
:1030A000FFE70D98016A0C9808430C90FFE70D9814
:1030B000006880684FF2FF41C1F2FF1108400C998F
:1030C00008430D99096888600D980068C06A20F06F
:1030D0000F000D9A1168526A1043C862FFE70D98FD
:1030E000006843F60001C4F20101884221D1FFE7E4
:1030F0000320FEF7BDFF01460691032814D8069968
:10310000DFE801F0020A060E01208DF82D000FE025
:1031100002208DF82D000BE004208DF82D0007E033
:1031200008208DF82D0003E010208DF82D00FFE71A
:1031300039E00D98006848F20001C4F200018842AD
:103140002CD1FFE74FF44060FEF778FF0146059170
:1031500078B1FFE70598B0F5806F12D0FFE70598CA
:10316000B0F5006F09D0FFE70598B0F5406F0CD0BF
:103170000FE000208DF82D000FE002208DF82D00CB
:103180000BE004208DF82D0007E008208DF82D00BD
:1031900003E010208DF82D00FFE703E010208DF8EC
:1031A0002D00FFE7FFE7FFE70D98006848F20001F8
:1031B000C4F20001884240F07E80FFE79DF82D00B8
:1031C00001460491082819D80499DFE801F0051791
:1031D00009170F1717171300FEF724F8079013E0CD
:1031E00042F20040C0F2F40007900DE0FEF746F80E
:1031F000079009E04FF40040079005E00020079099
:1032000001208DF82700FFE70798002852D0FFE73C
:1032100007980D994A6A44F24401C0F6000131F85A
:103220001210B0FBF1F0089008980D99496801EB75
:103230004101884207D3FFE708980D994968B0EB30
:10324000013F04D9FFE701208DF8270031E00798FE
:103250000D994A6802924A6A44F24401C0F600019C
:1032600031F81220002303931946FCF783FF029ADA
:10327000039B090241EA1061000210EB520041F188
:103280000001FCF777FF0A900A98B0F5407F0BD356
:10329000FFE70A990020B0EB115F05D1FFE70A981C
:1032A0000D990968C86003E001208DF82700FFE749
:1032B000FFE7FFE7B1E00D98C069B0F5004F5DD1C1
:1032C000FFE79DF82D00013801460191072818D825
:1032D0000199DFE801F00408160E16161612FDF724
:1032E000B7FF079013E042F20040C0F2F4000790ED
:1032F0000DE0FDF7C3FF079009E04FF40040079091
:1033000005E00020079001208DF82700FFE70798CF
:1033100098B3FFE707980D9A5168536A44F2440244
:10332000C0F6000232F81320B0FBF2F0400000EBD0
:103330005100B0FBF1F00A900A98102818D3FFE76B
:10334000BDF82A00A0B9FFE70A9820F00F00ADF8F9
:103350002E000A9800F00E01BDF82E0040EA510040
:10336000ADF82E00BDF82E000D990968C86003E085
:1033700001208DF82700FFE7FFE74DE09DF82D00C5
:10338000013801460091072818D80099DFE801F0BC
:103390000408160E16161612FDF75AFF079013E0D2
:1033A00042F20040C0F2F40007900DE0FDF766FF26
:1033B000079009E04FF40040079005E000200790D7
:1033C00001208DF82700FFE7079820B3FFE7079853
:1033D0000D9A5168536A44F24402C0F6000232F872
:1033E0001320B0FBF2F000EB5100B0FBF1F00A90BB
:1033F0000A9810280AD3FFE7BDF82A0030B9FFE782
:10340000BDF828000D990968C86003E001208DF817
:103410002700FFE7FFE7FFE7FFE70D990120A1F88D
:103420006A000D99A1F868000D99002048670D9970
:1034300088679DF827000EB080BD000080B586B07B
:10344000DDF820C0049003918DF80B200193FFE775
:1034500004980068C06903990840401AB0FA80F0E7
:1034600040099DF80B10884266D1FFE708980130AB
:10347000002860D0FFE7FDF70BFB0199401A08997F
:10348000884203D8FFE7089820B9FFE703208DF8AA
:10349000170055E00498006800684007002849D5E7
:1034A000FFE70398802845D0FFE70398402841D0E4
:1034B000FFE704980068C06900F008010120B0EB44
:1034C000D10F16D1FFE70498016808200090086228
:1034D0000498FFF759FD00980499C1F89000FFE7A0
:1034E0000499002081F88400FFE701208DF817007F
:1034F00026E004980068C06900F400610120B0EB88
:10350000D12F16D1FFE7049801684FF400600862DC
:103510000498FFF739FD04992020C1F89000FFE7D7
:103520000499002081F88400FFE703208DF817003C
:1035300006E0FFE7FFE78BE700208DF81700FFE7C5
:103540009DF8170006B080BDFFE7FEE74EF60C5071
:10355000CEF200000068C0F30220704782B08DF800
:10356000070000919DF9070000280AD4FFE70098A2
:1035700000019DF907104EF20042CEF2000288547D
:103580000BE0009800019DF8071001F00F014EF6C6
:103590001452CEF200028854FFE702B070470000D8
:1035A00083B00290029800F0070000904EF60C5194
:1035B000CEF200010868019001984FF6FF0210401A
:1035C00001900198009A40EA02200022C0F2FA52CB
:1035D000104301900198086003B0704780B582B035
:1035E0000190009140F21800C2F2000001A90122EE
:1035F0004FF6FF73FEF71CFC019802B080BD00007F
:1036000080B588B000200790FDF75CFAFFF798FAC4
:10361000FFF76EF8FEF7C4FFFEF7E6FFFFE740F2A4
:103620000040C4F600000390202101910122029283
:10363000FDF718FA029A03981146FDF713FA029A59
:10364000039802210491FDF70DFA44F28600C0F6BA
:10365000000000F01FF84FF4FA700690FDF748F8EC
:103660000199039800220592FDF7FCF9029903984D
:10367000059AFDF7F7F903980499059AFDF7F2F911
:1036800044F27C00C0F6000000F004F80698FDF754
:103690002FF8C4E70FB4054B10B503A9044A0298EC
:1036A00000F0DAF810BC5DF814FB0000DD3500080E
:1036B0000800002002E008C8121F08C1002AFAD141
:1036C00070477047002001E001C1121F002AFBD1A2
:1036D000704700002DE9FF5F82B00021DDE9043072
:1036E000020DDDF840B0034318D044F61050A2F2AA
:1036F000FF3242431514119801281FD0A5EB0B008F
:10370000401C5FEA000A4FF000064E4FDFF8389188
:10371000B046504615D5CAF1000413E011980124B3
:103720004AA3012801D16FEA0B010298119AC0E95E
:103730000031C0E9024206B0BDE8F09FCBF10000C5
:10374000DFE704460021404A491842EB0450CDE926
:10375000001012E0E00707D032463B46404649469B
:10376000FCF727FE8046894632463B4610461946FE
:10377000FCF71FFE06460F466410002CEAD1DDE977
:103780000401DDE90023BAF1000F06DAFCF711FEAF
:1037900042464B46FCF70DFE05E0FCF77CFE424638
:1037A0004B46FCF778FE04460E460022284BFCF7F9
:1037B000F9FE03D84FF0FF30014607E00022254B09
:1037C00020463146FCF74EFDFCF7D4FE102409E0FC
:1037D000002C0ADB0A220023FCF7CCFC039B3032CE
:1037E0001A55641E50EA0102F2D1641C039AC4F116
:1037F00011031444119A012A03D0012208430DD168
:103800000AE0084304D000204FF0110B119072E73A
:10381000A3EB0B056D1E0DE05B4504DD4FF00002D0
:1038200005F1010504E003DA4FF00002A5F10105FE
:10383000002AECD002981199C0E90231C0E9004594
:1038400079E70000000014400000F03F3000000065
:103850000000F0430000E03F2DE9FF4F95B09B468C
:103860008946064600250FE2252877D10024274601
:10387000F84A0121059400E0044316F8013F203B7B
:1038800001FA03F01042F7D130782A2811D06FF0F6
:103890002F033078A0F13002092A16D8059A44F097
:1038A000020402EB820203EB42021044761C0590F4
:1038B000EFE759F8042B0592002A03DA504244F44A
:1038C0000054059044F00204761C30782E2816D15E
:1038D00016F8010F44F004042A280DD06FF02F02CF
:1038E0003078A0F13003092B09D807EB870302EBEE
:1038F0004303C718761CF3E759F8047B761C30782D
:103900006C280FD006DC4C2817D068280DD06A2808
:1039100014D104E0742810D07A280FD10DE044F4BB
:1039200000140AE044F4801401E044F44014727876
:10393000824202D104F58014761C761C3078662809
:103940000BD013DC582877D009DC002875D0452827
:10395000F6D04628F4D047281AD19DE118E0632814
:1039600035D0642879D0652812D195E1702873D0BC
:1039700008DC6728F1D069286FD06E280DD06F2839
:1039800006D1B5E073282CD0752875D0782874D06E
:103990005A46179990476D1C75E1C4F302500228EE
:1039A00009D003280DD0D9F8001004280DD00D60DF
:1039B00009F1040967E1D9F80010EA17C1E90052DA
:1039C000F6E7D9F800100D80F2E70D70F0E719F86E
:1039D000041B8DF8001000208DF80100EA4601203C
:1039E00003E059F804AB4FF0FF3061074FF00001DE
:1039F00002D40DE008F101018846B9420FDA804592
:103A0000F8DB1AF808100029F4D108E008F10101E8
:103A100088468142FADB1AF808100029F6D1059889
:103A20005B46A0EB080721463846179A00F094FA47
:103A3000284400EB080507E04DE029E10DE01AF805
:103A4000010B5A4617999047B8F10108F7D25B4627
:103A500021463846179A13E142E00A220092C4F345
:103A600002524FF0000A022A08D059F804CB032A68
:103A70004FEAEC710AD00DE029E02AE009F10701D4
:103A800021F00702F2E802C1914609E00FFA8CFC2E
:103A90004FEAEC71042A03D14FFA8CFC4FEAEC7127
:103AA000002907DA0A460021DCF1000C61EB020173
:103AB0002D2202E0220504D52B228DF804200122BC
:103AC00003E0E20701D02022F7E7904659E00A21FF
:103AD00002E010220DE010214FF0000A00910BE0EF
:103AE00010224FF0000A44F004040827009203E07B
:103AF00008224FF0000A0092C4F30252022A05D0B5
:103B000059F804CB0021032A08D009E009F1070184
:103B100021F00702F2E802C1914605E01FFA8CFC91
:103B2000042A01D10CF0FF0C4FF00008220728D521
:103B3000702806D0009B83F0100353EA0A0305D0D7
:103B40000EE040228DF80420012208E05CEA010228
:103B500006D030228DF804208DF805000222904610
:103B6000009B83F0080353EA0A030AD15CEA0102CE
:103B700001D1620705D530228DF804204FF00108ED
:103B80007F1E582804D034A003900EA802900DE0A8
:103B900036A0F9E753466046009AFCF7EBFA8446F4
:103BA0000398825C0298401E029002705CEA010059
:103BB000F0D1029806A9081A00F1200A600702D580
:103BC00024F4803400E00127574502DDA7EB0A000A
:103BD00000E0002000EB0A01009005984144401AE3
:103BE0000590E00306D45B462146179A059800F03D
:103BF000B3F90544002706E001A85A46C05D1799AD
:103C000090476D1C7F1C4745F6DBE0030CD55B46F7
:103C10002146179A059800F09FF9054404E03020EA
:103C20005A46179990476D1C0099481E009000292C
:103C3000F5DC08E0029802995A460078491C029186
:103C4000179990476D1CBAF10001AAF1010AF1DC45
:103C500065E1000009280100303132333435363750
:103C600038396162636465660000000030313233C8
:103C70003435363738394142434445460000000068
:103C800000F058F90544761C307800287FF4ECAD3C
:103C900019B02846BDE8F08F620700D4062709F165
:103CA000070222F0070CFCE80223E14603F000487B
:103CB0005FEA080C02D00FF2702C0DE05FEA045CA2
:103CC00002D50FF2682C07E05FEAC47C02D00FF245
:103CD000602C01E0AFF2700C4FF0FF3823F000438E
:103CE000CDF850C065280CD006DC452809D0462800
:103CF0001DD047283DD13DE0662818D067287ED1E9
:103D000038E00021112F01DB112000E0781CCDE903
:103D1000000106A90EA8FFF7DDFCDDE90F010E9AF0
:103D200003910021009207F1010A04914DE04FF048
:103D300000400097CDE9011006A90EA8FFF7CAFCC4
:103D4000DDE90F0203920E9B11990022DDF80CA011
:103D50000093049211B9791C00EB010AB7EB0A0039
:103D600004D4C0F1FF3007F1010A0490AAEB070068
:103D7000019044E0012F00DA01270021112F01DD1D
:103D8000112000E03846CDE9000106A90EA8FFF792
:103D9000A1FCDDE90F010E9A03910021049100922C
:103DA000BA4621070CD40399514500DA8A46BAF184
:103DB000010F05DD009AAAF10101515C302908D0FC
:103DC000B84202DA10F1040F06DA0121CDE9011040
:103DD00015E0AAF10101E9E7002805DC0499014496
:103DE0000491AAEB000102E0411C514500DD8A4626
:103DF0000499401A401C01904FF0004002902007A7
:103E000004D40198504501DBCDF8048000208DF8E2
:103E10004F0002980DF14F07B0F1004F25D02B2035
:103E20000E9002984FF0020800280CDA40420290EF
:103E30002D200E9007E00A210298FCF7DEF93031C0
:103E4000029007F8011DB8F10001A8F10108F2DCA9
:103E500002980028EFD1791E0E980870307800F093
:103E6000200040F0450007F8020D12A8C01B00F129
:103E700007081498007800B1012000EB0A010198AE
:103E800001EBE07105984144401A401E0590E003A3
:103E900006D45B462146179A059800F05DF8054464
:103EA0001498007818B15A46179990476D1CE00392
:103EB00024D55B462146179A059800F04DF8054435
:103EC0001CE00498002807DBDDE90301884203DDDC
:103ED0000098405C179901E0179930205A469047A6
:103EE000049805F10105401C04900198401E0190C2
:103EF00004D12E205A46179990476D1CBAF1000143
:103F0000AAF1010ADDDC05E017F8010B5A46179902
:103F100090476D1CB8F10001A8F10108F4DC5B4684
:103F20002146179A0598ABE62D0000002B000000F3
:103F3000200000002DE9F041044600251E461746EA
:103F4000880404D405E039462020B0476D1C641E67
:103F5000F9D52846BDE8F0812DE9F0410446002559
:103F60001E469046C80301D5302700E0202788046C
:103F700004D505E041463846B0476D1C641EF9D5AE
:103F80002846BDE8F0810000060000000C0000009B
:103F90001000000001000000030000000500000008
:103FA0000100000001000000060000000A000000FF
:103FB00020000000020000000400000008000000D3
:103FC0001000000040000000800000000001000020
:103FD00000020000000000000000000000000000DF
:103FE00000000000010000000200000003000000CB
:103FF00004000000A0860100400D0300801A0600A6
:1040000000350C0040420F0080841E0000093D0076
:1040100000127A000024F40000366E010048E80126
:10402000006CDC0200000000000000000000000046
:10403000000000000804020408010101010101035D
:1040400007010000010002000400060008000A0049
:104050000C00100020004000800000011200000051
:1040600024000000360000004000000000000000B6
:104070000100000002000000030000004C45442045
:104080004F4646210A004C4544204F4E210A00006D
:10409000B04000080800002010000000B4360008FE
:1040A000C04000081800002098400000C4360008F6
:1040B0000000000000093D000100000010000000A9
:040000050800013DB1
:00000001FF
